{
  "abi": [
    {
      "inputs": [
        {
          "internalType": "address",
          "name": "_officer",
          "type": "address"
        }
      ],
      "stateMutability": "nonpayable",
      "type": "constructor"
    },
    {
      "anonymous": false,
      "inputs": [
        {
          "indexed": false,
          "internalType": "uint256",
          "name": "id",
          "type": "uint256"
        },
        {
          "indexed": false,
          "internalType": "address",
          "name": "complaintRegisteredBy",
          "type": "address"
        },
        {
          "indexed": false,
          "internalType": "string",
          "name": "title",
          "type": "string"
        }
      ],
      "name": "complaintFiled",
      "type": "event"
    },
    {
      "inputs": [
        {
          "internalType": "uint256",
          "name": "",
          "type": "uint256"
        }
      ],
      "name": "Complaints",
      "outputs": [
        {
          "internalType": "uint256",
          "name": "id",
          "type": "uint256"
        },
        {
          "internalType": "address",
          "name": "complaintRegisteredBy",
          "type": "address"
        },
        {
          "internalType": "string",
          "name": "title",
          "type": "string"
        },
        {
          "internalType": "string",
          "name": "description",
          "type": "string"
        },
        {
          "internalType": "string",
          "name": "approvalRemark",
          "type": "string"
        },
        {
          "internalType": "string",
          "name": "resolutionRemark",
          "type": "string"
        },
        {
          "internalType": "bool",
          "name": "isApproved",
          "type": "bool"
        },
        {
          "internalType": "bool",
          "name": "isResolved",
          "type": "bool"
        },
        {
          "internalType": "bool",
          "name": "exists",
          "type": "bool"
        }
      ],
      "stateMutability": "view",
      "type": "function"
    },
    {
      "inputs": [
        {
          "internalType": "uint256",
          "name": "_id",
          "type": "uint256"
        },
        {
          "internalType": "string",
          "name": "_approvalRemark",
          "type": "string"
        }
      ],
      "name": "approveComplaint",
      "outputs": [],
      "stateMutability": "nonpayable",
      "type": "function"
    },
    {
      "inputs": [],
      "name": "calcPendingApprovalIds",
      "outputs": [],
      "stateMutability": "nonpayable",
      "type": "function"
    },
    {
      "inputs": [],
      "name": "calcPendingResolutionIds",
      "outputs": [],
      "stateMutability": "nonpayable",
      "type": "function"
    },
    {
      "inputs": [],
      "name": "calcResolvedIds",
      "outputs": [],
      "stateMutability": "nonpayable",
      "type": "function"
    },
    {
      "inputs": [
        {
          "internalType": "uint256",
          "name": "_id",
          "type": "uint256"
        },
        {
          "internalType": "string",
          "name": "_approvalRemark",
          "type": "string"
        }
      ],
      "name": "discardComplaint",
      "outputs": [],
      "stateMutability": "nonpayable",
      "type": "function"
    },
    {
      "inputs": [
        {
          "internalType": "string",
          "name": "_title",
          "type": "string"
        },
        {
          "internalType": "string",
          "name": "_description",
          "type": "string"
        }
      ],
      "name": "fileComplaint",
      "outputs": [],
      "stateMutability": "nonpayable",
      "type": "function"
    },
    {
      "inputs": [],
      "name": "nextId",
      "outputs": [
        {
          "internalType": "uint256",
          "name": "",
          "type": "uint256"
        }
      ],
      "stateMutability": "view",
      "type": "function"
    },
    {
      "inputs": [],
      "name": "officer",
      "outputs": [
        {
          "internalType": "address",
          "name": "",
          "type": "address"
        }
      ],
      "stateMutability": "view",
      "type": "function"
    },
    {
      "inputs": [],
      "name": "owner",
      "outputs": [
        {
          "internalType": "address",
          "name": "",
          "type": "address"
        }
      ],
      "stateMutability": "view",
      "type": "function"
    },
    {
      "inputs": [
        {
          "internalType": "uint256",
          "name": "",
          "type": "uint256"
        }
      ],
      "name": "pendingApprovals",
      "outputs": [
        {
          "internalType": "uint256",
          "name": "",
          "type": "uint256"
        }
      ],
      "stateMutability": "view",
      "type": "function"
    },
    {
      "inputs": [
        {
          "internalType": "uint256",
          "name": "",
          "type": "uint256"
        }
      ],
      "name": "pendingResolutions",
      "outputs": [
        {
          "internalType": "uint256",
          "name": "",
          "type": "uint256"
        }
      ],
      "stateMutability": "view",
      "type": "function"
    },
    {
      "inputs": [
        {
          "internalType": "uint256",
          "name": "_id",
          "type": "uint256"
        },
        {
          "internalType": "string",
          "name": "_resolutionRemark",
          "type": "string"
        }
      ],
      "name": "resolveComplaint",
      "outputs": [],
      "stateMutability": "nonpayable",
      "type": "function"
    },
    {
      "inputs": [
        {
          "internalType": "uint256",
          "name": "",
          "type": "uint256"
        }
      ],
      "name": "resolvedCases",
      "outputs": [
        {
          "internalType": "uint256",
          "name": "",
          "type": "uint256"
        }
      ],
      "stateMutability": "view",
      "type": "function"
    },
    {
      "inputs": [
        {
          "internalType": "address",
          "name": "_officer",
          "type": "address"
        }
      ],
      "name": "setOfficerAddress",
      "outputs": [],
      "stateMutability": "nonpayable",
      "type": "function"
    }
  ],
  "devdoc": {
    "kind": "dev",
    "methods": {},
    "version": 1
  },
  "evm": {
    "assembly": "    /* \"Complaint.sol\":60:4704  contract Complaint {... */\n  mstore(0x40, 0x80)\n    /* \"Complaint.sol\":291:408  constructor(address _officer) {... */\n  callvalue\n  dup1\n  iszero\n  tag_1\n  jumpi\n  0x00\n  dup1\n  revert\ntag_1:\n  pop\n  mload(0x40)\n  sub(codesize, bytecodeSize)\n  dup1\n  bytecodeSize\n  dup4\n  codecopy\n  dup2\n  add\n  0x40\n  dup2\n  swap1\n  mstore\n  tag_2\n  swap2\n  tag_3\n  jump\t// in\ntag_2:\n    /* \"Complaint.sol\":332:337  owner */\n  0x01\n    /* \"Complaint.sol\":332:350  owner = msg.sender */\n  dup1\n  sload\n    /* \"Complaint.sol\":340:350  msg.sender */\n  caller\n  not(sub(shl(0xa0, 0x01), 0x01))\n    /* \"Complaint.sol\":332:350  owner = msg.sender */\n  swap2\n  dup3\n  and\n  or\n  dup3\n  sstore\n  0x00\n    /* \"Complaint.sol\":361:379  officer = _officer */\n  dup1\n  sload\n  swap1\n  swap2\n  and\n  sub(shl(0xa0, 0x01), 0x01)\n  swap4\n  swap1\n  swap4\n  and\n  swap3\n  swap1\n  swap3\n  or\n  swap1\n  swap2\n  sstore\n    /* \"Complaint.sol\":390:396  nextId */\n  0x02\n    /* \"Complaint.sol\":390:400  nextId = 1 */\n  sstore\n    /* \"Complaint.sol\":60:4704  contract Complaint {... */\n  jump(tag_7)\n    /* \"#utility.yul\":14:304   */\ntag_3:\n    /* \"#utility.yul\":84:90   */\n  0x00\n    /* \"#utility.yul\":137:139   */\n  0x20\n    /* \"#utility.yul\":125:134   */\n  dup3\n    /* \"#utility.yul\":116:123   */\n  dup5\n    /* \"#utility.yul\":112:135   */\n  sub\n    /* \"#utility.yul\":108:140   */\n  slt\n    /* \"#utility.yul\":105:157   */\n  iszero\n  tag_9\n  jumpi\n    /* \"#utility.yul\":153:154   */\n  0x00\n    /* \"#utility.yul\":150:151   */\n  dup1\n    /* \"#utility.yul\":143:155   */\n  revert\n    /* \"#utility.yul\":105:157   */\ntag_9:\n    /* \"#utility.yul\":179:195   */\n  dup2\n  mload\n  sub(shl(0xa0, 0x01), 0x01)\n    /* \"#utility.yul\":224:255   */\n  dup2\n  and\n    /* \"#utility.yul\":214:256   */\n  dup2\n  eq\n    /* \"#utility.yul\":204:274   */\n  tag_10\n  jumpi\n    /* \"#utility.yul\":270:271   */\n  0x00\n    /* \"#utility.yul\":267:268   */\n  dup1\n    /* \"#utility.yul\":260:272   */\n  revert\n    /* \"#utility.yul\":204:274   */\ntag_10:\n    /* \"#utility.yul\":293:298   */\n  swap4\n    /* \"#utility.yul\":14:304   */\n  swap3\n  pop\n  pop\n  pop\n  jump\t// out\ntag_7:\n    /* \"Complaint.sol\":60:4704  contract Complaint {... */\n  dataSize(sub_0)\n  dup1\n  dataOffset(sub_0)\n  0x00\n  codecopy\n  0x00\n  return\nstop\n\nsub_0: assembly {\n        /* \"Complaint.sol\":60:4704  contract Complaint {... */\n      mstore(0x40, 0x80)\n      callvalue\n      dup1\n      iszero\n      tag_1\n      jumpi\n      0x00\n      dup1\n      revert\n    tag_1:\n      pop\n      jumpi(tag_2, lt(calldatasize, 0x04))\n      shr(0xe0, calldataload(0x00))\n      dup1\n      0x6d1727e9\n      gt\n      tag_18\n      jumpi\n      dup1\n      0xbc685ce0\n      gt\n      tag_19\n      jumpi\n      dup1\n      0xbc685ce0\n      eq\n      tag_14\n      jumpi\n      dup1\n      0xcc911635\n      eq\n      tag_15\n      jumpi\n      dup1\n      0xd2032042\n      eq\n      tag_16\n      jumpi\n      dup1\n      0xfecc1021\n      eq\n      tag_17\n      jumpi\n      0x00\n      dup1\n      revert\n    tag_19:\n      dup1\n      0x6d1727e9\n      eq\n      tag_10\n      jumpi\n      dup1\n      0x8da5cb5b\n      eq\n      tag_11\n      jumpi\n      dup1\n      0x9f2b37b0\n      eq\n      tag_12\n      jumpi\n      dup1\n      0xb09cc427\n      eq\n      tag_13\n      jumpi\n      0x00\n      dup1\n      revert\n    tag_18:\n      dup1\n      0x3c5f15e7\n      gt\n      tag_20\n      jumpi\n      dup1\n      0x3c5f15e7\n      eq\n      tag_6\n      jumpi\n      dup1\n      0x4de1c8c3\n      eq\n      tag_7\n      jumpi\n      dup1\n      0x61b8ce8c\n      eq\n      tag_8\n      jumpi\n      dup1\n      0x686b656e\n      eq\n      tag_9\n      jumpi\n      0x00\n      dup1\n      revert\n    tag_20:\n      dup1\n      0x2071be7f\n      eq\n      tag_3\n      jumpi\n      dup1\n      0x26019e7f\n      eq\n      tag_4\n      jumpi\n      dup1\n      0x346fed10\n      eq\n      tag_5\n      jumpi\n    tag_2:\n      0x00\n      dup1\n      revert\n        /* \"Complaint.sol\":4339:4594  function calcResolvedIds() public {... */\n    tag_3:\n      tag_21\n      tag_22\n      jump\t// in\n    tag_21:\n      stop\n        /* \"Complaint.sol\":2955:3556  function resolveComplaint(uint256 _id, string memory _resolutionRemark)... */\n    tag_4:\n      tag_21\n      tag_24\n      calldatasize\n      0x04\n      tag_25\n      jump\t// in\n    tag_24:\n      tag_26\n      jump\t// in\n        /* \"Complaint.sol\":3922:4331  function calcPendingResolutionIds() public {... */\n    tag_5:\n      tag_21\n      tag_28\n      jump\t// in\n        /* \"Complaint.sol\":4602:4701  function setOfficerAddress(address _officer) public onlyOwner {... */\n    tag_6:\n      tag_21\n      tag_30\n      calldatasize\n      0x04\n      tag_31\n      jump\t// in\n    tag_30:\n      tag_32\n      jump\t// in\n        /* \"Complaint.sol\":252:282  uint256[] public resolvedCases */\n    tag_7:\n      tag_33\n      tag_34\n      calldatasize\n      0x04\n      tag_35\n      jump\t// in\n    tag_34:\n      tag_36\n      jump\t// in\n    tag_33:\n      mload(0x40)\n        /* \"#utility.yul\":1910:1935   */\n      swap1\n      dup2\n      mstore\n        /* \"#utility.yul\":1898:1900   */\n      0x20\n        /* \"#utility.yul\":1883:1901   */\n      add\n        /* \"Complaint.sol\":252:282  uint256[] public resolvedCases */\n    tag_37:\n      mload(0x40)\n      dup1\n      swap2\n      sub\n      swap1\n      return\n        /* \"Complaint.sol\":142:163  uint256 public nextId */\n    tag_8:\n      tag_33\n      sload(0x02)\n      dup2\n      jump\n        /* \"Complaint.sol\":170:203  uint256[] public pendingApprovals */\n    tag_9:\n      tag_33\n      tag_43\n      calldatasize\n      0x04\n      tag_35\n      jump\t// in\n    tag_43:\n      tag_44\n      jump\t// in\n        /* \"Complaint.sol\":1235:1900  function fileComplaint(string memory _title, string memory _description)... */\n    tag_10:\n      tag_21\n      tag_47\n      calldatasize\n      0x04\n      tag_48\n      jump\t// in\n    tag_47:\n      tag_49\n      jump\t// in\n        /* \"Complaint.sol\":115:135  address public owner */\n    tag_11:\n      sload(0x01)\n      tag_50\n      swap1\n      sub(shl(0xa0, 0x01), 0x01)\n      and\n      dup2\n      jump\n    tag_50:\n      mload(0x40)\n      sub(shl(0xa0, 0x01), 0x01)\n        /* \"#utility.yul\":2658:2713   */\n      swap1\n      swap2\n      and\n        /* \"#utility.yul\":2640:2714   */\n      dup2\n      mstore\n        /* \"#utility.yul\":2628:2630   */\n      0x20\n        /* \"#utility.yul\":2613:2631   */\n      add\n        /* \"Complaint.sol\":115:135  address public owner */\n      tag_37\n        /* \"#utility.yul\":2494:2720   */\n      jump\n        /* \"Complaint.sol\":1059:1106  mapping(uint256 => complaint) public Complaints */\n    tag_12:\n      tag_54\n      tag_55\n      calldatasize\n      0x04\n      tag_35\n      jump\t// in\n    tag_55:\n      tag_56\n      jump\t// in\n    tag_54:\n      mload(0x40)\n      tag_37\n      swap10\n      swap9\n      swap8\n      swap7\n      swap6\n      swap5\n      swap4\n      swap3\n      swap2\n      swap1\n      tag_58\n      jump\t// in\n        /* \"Complaint.sol\":2387:2947  function discardComplaint(uint256 _id, string memory _approvalRemark)... */\n    tag_13:\n      tag_21\n      tag_60\n      calldatasize\n      0x04\n      tag_25\n      jump\t// in\n    tag_60:\n      tag_61\n      jump\t// in\n        /* \"Complaint.sol\":86:108  address public officer */\n    tag_14:\n      sload(0x00)\n      tag_50\n      swap1\n      sub(shl(0xa0, 0x01), 0x01)\n      and\n      dup2\n      jump\n        /* \"Complaint.sol\":3564:3914  function calcPendingApprovalIds() public {... */\n    tag_15:\n      tag_21\n      tag_66\n      jump\t// in\n        /* \"Complaint.sol\":1908:2379  function approveComplaint(uint256 _id, string memory _approvalRemark)... */\n    tag_16:\n      tag_21\n      tag_68\n      calldatasize\n      0x04\n      tag_25\n      jump\t// in\n    tag_68:\n      tag_69\n      jump\t// in\n        /* \"Complaint.sol\":210:245  uint256[] public pendingResolutions */\n    tag_17:\n      tag_33\n      tag_71\n      calldatasize\n      0x04\n      tag_35\n      jump\t// in\n    tag_71:\n      tag_72\n      jump\t// in\n        /* \"Complaint.sol\":4339:4594  function calcResolvedIds() public {... */\n    tag_22:\n        /* \"Complaint.sol\":4384:4404  delete resolvedCases */\n      tag_75\n        /* \"Complaint.sol\":4391:4404  resolvedCases */\n      0x05\n      0x00\n        /* \"Complaint.sol\":4384:4404  delete resolvedCases */\n      tag_76\n      jump\t// in\n    tag_75:\n        /* \"Complaint.sol\":4432:4433  1 */\n      0x01\n        /* \"Complaint.sol\":4415:4587  for (uint256 i = 1; i < nextId; i++) {... */\n    tag_77:\n        /* \"Complaint.sol\":4439:4445  nextId */\n      sload(0x02)\n        /* \"Complaint.sol\":4435:4436  i */\n      dup2\n        /* \"Complaint.sol\":4435:4445  i < nextId */\n      lt\n        /* \"Complaint.sol\":4415:4587  for (uint256 i = 1; i < nextId; i++) {... */\n      iszero\n      tag_78\n      jumpi\n        /* \"Complaint.sol\":4471:4484  Complaints[i] */\n      0x00\n      dup2\n      dup2\n      mstore\n        /* \"Complaint.sol\":4471:4481  Complaints */\n      0x06\n        /* \"Complaint.sol\":4471:4484  Complaints[i] */\n      0x20\n      dup2\n      swap1\n      mstore\n      0x40\n      swap1\n      swap2\n      keccak256\n        /* \"Complaint.sol\":4471:4495  Complaints[i].isResolved */\n      add\n      sload\n      0x0100\n      swap1\n      div\n      0xff\n      and\n        /* \"Complaint.sol\":4471:4503  Complaints[i].isResolved == true */\n      iszero\n      iszero\n        /* \"Complaint.sol\":4471:4495  Complaints[i].isResolved */\n      0x01\n        /* \"Complaint.sol\":4471:4503  Complaints[i].isResolved == true */\n      sub\n        /* \"Complaint.sol\":4467:4576  if (Complaints[i].isResolved == true) {... */\n      tag_80\n      jumpi\n        /* \"Complaint.sol\":4543:4556  Complaints[i] */\n      0x00\n      dup2\n      dup2\n      mstore\n        /* \"Complaint.sol\":4543:4553  Complaints */\n      0x06\n        /* \"Complaint.sol\":4543:4556  Complaints[i] */\n      0x20\n      mstore\n      0x40\n      dup2\n      keccak256\n        /* \"Complaint.sol\":4543:4559  Complaints[i].id */\n      sload\n        /* \"Complaint.sol\":4524:4537  resolvedCases */\n      0x05\n        /* \"Complaint.sol\":4524:4560  resolvedCases.push(Complaints[i].id) */\n      dup1\n      sload\n      0x01\n      dup2\n      add\n      dup3\n      sstore\n      swap3\n      mstore\n      0x036b6384b5eca791c62761152d0c79bb0604c104a5fb6f4eb0703f3154bb3db0\n      swap1\n      swap2\n      add\n      sstore\n        /* \"Complaint.sol\":4467:4576  if (Complaints[i].isResolved == true) {... */\n    tag_80:\n        /* \"Complaint.sol\":4447:4450  i++ */\n      dup1\n      tag_82\n      dup2\n      tag_83\n      jump\t// in\n    tag_82:\n      swap2\n      pop\n      pop\n        /* \"Complaint.sol\":4415:4587  for (uint256 i = 1; i < nextId; i++) {... */\n      jump(tag_77)\n    tag_78:\n      pop\n        /* \"Complaint.sol\":4339:4594  function calcResolvedIds() public {... */\n      jump\t// out\n        /* \"Complaint.sol\":2955:3556  function resolveComplaint(uint256 _id, string memory _resolutionRemark)... */\n    tag_26:\n        /* \"Complaint.sol\":659:666  officer */\n      and(sub(shl(0xa0, 0x01), 0x01), sload(0x00))\n        /* \"Complaint.sol\":645:655  msg.sender */\n      caller\n        /* \"Complaint.sol\":645:666  msg.sender == officer */\n      eq\n        /* \"Complaint.sol\":623:747  require(... */\n      tag_85\n      jumpi\n      mload(0x40)\n      shl(0xe5, 0x461bcd)\n      dup2\n      mstore\n        /* \"#utility.yul\":4865:4867   */\n      0x20\n        /* \"Complaint.sol\":623:747  require(... */\n      0x04\n      dup3\n      add\n        /* \"#utility.yul\":4847:4868   */\n      mstore\n        /* \"#utility.yul\":4904:4906   */\n      0x35\n        /* \"#utility.yul\":4884:4902   */\n      0x24\n      dup3\n      add\n        /* \"#utility.yul\":4877:4907   */\n      mstore\n        /* \"#utility.yul\":4943:4977   */\n      0x596f7520617265206e6f742072656769737465726564206f666669636572206f\n        /* \"#utility.yul\":4923:4941   */\n      0x44\n      dup3\n      add\n        /* \"#utility.yul\":4916:4978   */\n      mstore\n        /* \"#utility.yul\":5014:5037   */\n      0x66207468697320736d61727420636f6e74726163740000000000000000000000\n        /* \"#utility.yul\":4994:5012   */\n      0x64\n      dup3\n      add\n        /* \"#utility.yul\":4987:5038   */\n      mstore\n        /* \"#utility.yul\":5055:5074   */\n      0x84\n      add\n        /* \"Complaint.sol\":623:747  require(... */\n    tag_86:\n      mload(0x40)\n      dup1\n      swap2\n      sub\n      swap1\n      revert\n    tag_85:\n        /* \"Complaint.sol\":3102:3117  Complaints[_id] */\n      0x00\n      dup3\n      dup2\n      mstore\n        /* \"Complaint.sol\":3102:3112  Complaints */\n      0x06\n        /* \"Complaint.sol\":3102:3117  Complaints[_id] */\n      0x20\n      dup2\n      swap1\n      mstore\n      0x40\n      swap1\n      swap2\n      keccak256\n        /* \"Complaint.sol\":3102:3124  Complaints[_id].exists */\n      add\n      sload\n      0x010000\n      swap1\n      div\n      0xff\n      and\n        /* \"Complaint.sol\":3102:3132  Complaints[_id].exists == true */\n      iszero\n      iszero\n        /* \"Complaint.sol\":3128:3132  true */\n      0x01\n        /* \"Complaint.sol\":3102:3132  Complaints[_id].exists == true */\n      eq\n        /* \"Complaint.sol\":3080:3192  require(... */\n      tag_89\n      jumpi\n      mload(0x40)\n      shl(0xe5, 0x461bcd)\n      dup2\n      mstore\n        /* \"#utility.yul\":5287:5289   */\n      0x20\n        /* \"Complaint.sol\":3080:3192  require(... */\n      0x04\n      dup3\n      add\n        /* \"#utility.yul\":5269:5290   */\n      dup2\n      swap1\n      mstore\n        /* \"#utility.yul\":5306:5324   */\n      0x24\n      dup3\n      add\n        /* \"#utility.yul\":5299:5329   */\n      mstore\n        /* \"#utility.yul\":5365:5399   */\n      0x5468697320636f6d706c61696e7420696420646f6573206e6f74206578697374\n        /* \"#utility.yul\":5345:5363   */\n      0x44\n      dup3\n      add\n        /* \"#utility.yul\":5338:5400   */\n      mstore\n        /* \"#utility.yul\":5417:5435   */\n      0x64\n      add\n        /* \"Complaint.sol\":3080:3192  require(... */\n      tag_86\n        /* \"#utility.yul\":5085:5441   */\n      jump\n        /* \"Complaint.sol\":3080:3192  require(... */\n    tag_89:\n        /* \"Complaint.sol\":3225:3240  Complaints[_id] */\n      0x00\n      dup3\n      dup2\n      mstore\n        /* \"Complaint.sol\":3225:3235  Complaints */\n      0x06\n        /* \"Complaint.sol\":3225:3240  Complaints[_id] */\n      0x20\n      dup2\n      swap1\n      mstore\n      0x40\n      swap1\n      swap2\n      keccak256\n        /* \"Complaint.sol\":3225:3251  Complaints[_id].isApproved */\n      add\n      sload\n      0xff\n      and\n        /* \"Complaint.sol\":3225:3259  Complaints[_id].isApproved == true */\n      iszero\n      iszero\n        /* \"Complaint.sol\":3225:3251  Complaints[_id].isApproved */\n      0x01\n        /* \"Complaint.sol\":3225:3259  Complaints[_id].isApproved == true */\n      eq\n        /* \"Complaint.sol\":3203:3316  require(... */\n      tag_92\n      jumpi\n      mload(0x40)\n      shl(0xe5, 0x461bcd)\n      dup2\n      mstore\n        /* \"#utility.yul\":5648:5650   */\n      0x20\n        /* \"Complaint.sol\":3203:3316  require(... */\n      0x04\n      dup3\n      add\n        /* \"#utility.yul\":5630:5651   */\n      mstore\n        /* \"#utility.yul\":5687:5689   */\n      0x1d\n        /* \"#utility.yul\":5667:5685   */\n      0x24\n      dup3\n      add\n        /* \"#utility.yul\":5660:5690   */\n      mstore\n        /* \"#utility.yul\":5726:5757   */\n      0x436f6d706c61696e74206973206e6f742079657420617070726f766564000000\n        /* \"#utility.yul\":5706:5724   */\n      0x44\n      dup3\n      add\n        /* \"#utility.yul\":5699:5758   */\n      mstore\n        /* \"#utility.yul\":5775:5793   */\n      0x64\n      add\n        /* \"Complaint.sol\":3203:3316  require(... */\n      tag_86\n        /* \"#utility.yul\":5446:5799   */\n      jump\n        /* \"Complaint.sol\":3203:3316  require(... */\n    tag_92:\n        /* \"Complaint.sol\":3349:3364  Complaints[_id] */\n      0x00\n      dup3\n      dup2\n      mstore\n        /* \"Complaint.sol\":3349:3359  Complaints */\n      0x06\n        /* \"Complaint.sol\":3349:3364  Complaints[_id] */\n      0x20\n      dup2\n      swap1\n      mstore\n      0x40\n      swap1\n      swap2\n      keccak256\n        /* \"Complaint.sol\":3349:3375  Complaints[_id].isResolved */\n      add\n      sload\n      0x0100\n      swap1\n      div\n      0xff\n      and\n        /* \"Complaint.sol\":3349:3384  Complaints[_id].isResolved == false */\n      iszero\n        /* \"Complaint.sol\":3327:3441  require(... */\n      tag_95\n      jumpi\n      mload(0x40)\n      shl(0xe5, 0x461bcd)\n      dup2\n      mstore\n        /* \"#utility.yul\":6006:6008   */\n      0x20\n        /* \"Complaint.sol\":3327:3441  require(... */\n      0x04\n      dup3\n      add\n        /* \"#utility.yul\":5988:6009   */\n      mstore\n        /* \"#utility.yul\":6045:6047   */\n      0x1d\n        /* \"#utility.yul\":6025:6043   */\n      0x24\n      dup3\n      add\n        /* \"#utility.yul\":6018:6048   */\n      mstore\n        /* \"#utility.yul\":6084:6115   */\n      0x436f6d706c61696e7420697320616c7265616479207265736f6c766564000000\n        /* \"#utility.yul\":6064:6082   */\n      0x44\n      dup3\n      add\n        /* \"#utility.yul\":6057:6116   */\n      mstore\n        /* \"#utility.yul\":6133:6151   */\n      0x64\n      add\n        /* \"Complaint.sol\":3327:3441  require(... */\n      tag_86\n        /* \"#utility.yul\":5804:6157   */\n      jump\n        /* \"Complaint.sol\":3327:3441  require(... */\n    tag_95:\n        /* \"Complaint.sol\":3452:3467  Complaints[_id] */\n      0x00\n      dup3\n      dup2\n      mstore\n        /* \"Complaint.sol\":3452:3462  Complaints */\n      0x06\n        /* \"Complaint.sol\":3452:3467  Complaints[_id] */\n      0x20\n      dup2\n      dup2\n      mstore\n      0x40\n      swap1\n      swap3\n      keccak256\n        /* \"Complaint.sol\":3452:3478  Complaints[_id].isResolved */\n      swap1\n      dup2\n      add\n        /* \"Complaint.sol\":3452:3485  Complaints[_id].isResolved = true */\n      dup1\n      sload\n      not(0xff00)\n      and\n      0x0100\n      or\n      swap1\n      sstore\n        /* \"Complaint.sol\":3496:3548  Complaints[_id].resolutionRemark = _resolutionRemark */\n      dup3\n      mload\n      tag_98\n      swap3\n        /* \"Complaint.sol\":3496:3528  Complaints[_id].resolutionRemark */\n      0x05\n      swap1\n      swap3\n      add\n      swap2\n        /* \"Complaint.sol\":3496:3548  Complaints[_id].resolutionRemark = _resolutionRemark */\n      dup5\n      add\n      swap1\n      tag_99\n      jump\t// in\n    tag_98:\n      pop\n        /* \"Complaint.sol\":2955:3556  function resolveComplaint(uint256 _id, string memory _resolutionRemark)... */\n      pop\n      pop\n      jump\t// out\n        /* \"Complaint.sol\":3922:4331  function calcPendingResolutionIds() public {... */\n    tag_28:\n        /* \"Complaint.sol\":3976:4001  delete pendingResolutions */\n      tag_101\n        /* \"Complaint.sol\":3983:4001  pendingResolutions */\n      0x04\n      0x00\n        /* \"Complaint.sol\":3976:4001  delete pendingResolutions */\n      tag_76\n      jump\t// in\n    tag_101:\n        /* \"Complaint.sol\":4029:4030  1 */\n      0x01\n        /* \"Complaint.sol\":4012:4324  for (uint256 i = 1; i < nextId; i++) {... */\n    tag_102:\n        /* \"Complaint.sol\":4036:4042  nextId */\n      sload(0x02)\n        /* \"Complaint.sol\":4032:4033  i */\n      dup2\n        /* \"Complaint.sol\":4032:4042  i < nextId */\n      lt\n        /* \"Complaint.sol\":4012:4324  for (uint256 i = 1; i < nextId; i++) {... */\n      iszero\n      tag_78\n      jumpi\n        /* \"Complaint.sol\":4086:4099  Complaints[i] */\n      0x00\n      dup2\n      dup2\n      mstore\n        /* \"Complaint.sol\":4086:4096  Complaints */\n      0x06\n        /* \"Complaint.sol\":4086:4099  Complaints[i] */\n      0x20\n      dup2\n      swap1\n      mstore\n      0x40\n      swap1\n      swap2\n      keccak256\n        /* \"Complaint.sol\":4086:4110  Complaints[i].isResolved */\n      add\n      sload\n      0x0100\n      swap1\n      div\n      0xff\n      and\n        /* \"Complaint.sol\":4086:4119  Complaints[i].isResolved == false */\n      iszero\n      dup1\n      iszero\n        /* \"Complaint.sol\":4086:4172  Complaints[i].isResolved == false &&... */\n      tag_105\n      jumpi\n      pop\n        /* \"Complaint.sol\":4140:4153  Complaints[i] */\n      0x00\n      dup2\n      dup2\n      mstore\n        /* \"Complaint.sol\":4140:4150  Complaints */\n      0x06\n        /* \"Complaint.sol\":4140:4153  Complaints[i] */\n      0x20\n      dup2\n      swap1\n      mstore\n      0x40\n      swap1\n      swap2\n      keccak256\n        /* \"Complaint.sol\":4140:4164  Complaints[i].isApproved */\n      add\n      sload\n      0xff\n      and\n        /* \"Complaint.sol\":4140:4172  Complaints[i].isApproved == true */\n      iszero\n      iszero\n        /* \"Complaint.sol\":4140:4164  Complaints[i].isApproved */\n      0x01\n        /* \"Complaint.sol\":4140:4172  Complaints[i].isApproved == true */\n      eq\n        /* \"Complaint.sol\":4086:4172  Complaints[i].isResolved == false &&... */\n    tag_105:\n        /* \"Complaint.sol\":4086:4221  Complaints[i].isResolved == false &&... */\n      dup1\n      iszero\n      tag_106\n      jumpi\n      pop\n        /* \"Complaint.sol\":4193:4206  Complaints[i] */\n      0x00\n      dup2\n      dup2\n      mstore\n        /* \"Complaint.sol\":4193:4203  Complaints */\n      0x06\n        /* \"Complaint.sol\":4193:4206  Complaints[i] */\n      0x20\n      dup2\n      swap1\n      mstore\n      0x40\n      swap1\n      swap2\n      keccak256\n        /* \"Complaint.sol\":4193:4213  Complaints[i].exists */\n      add\n      sload\n      0x010000\n      swap1\n      div\n      0xff\n      and\n        /* \"Complaint.sol\":4193:4221  Complaints[i].exists == true */\n      iszero\n      iszero\n        /* \"Complaint.sol\":4217:4221  true */\n      0x01\n        /* \"Complaint.sol\":4193:4221  Complaints[i].exists == true */\n      eq\n        /* \"Complaint.sol\":4086:4221  Complaints[i].isResolved == false &&... */\n    tag_106:\n        /* \"Complaint.sol\":4064:4313  if (... */\n      iszero\n      tag_107\n      jumpi\n        /* \"Complaint.sol\":4280:4293  Complaints[i] */\n      0x00\n      dup2\n      dup2\n      mstore\n        /* \"Complaint.sol\":4280:4290  Complaints */\n      0x06\n        /* \"Complaint.sol\":4280:4293  Complaints[i] */\n      0x20\n      mstore\n      0x40\n      dup2\n      keccak256\n        /* \"Complaint.sol\":4280:4296  Complaints[i].id */\n      sload\n        /* \"Complaint.sol\":4256:4274  pendingResolutions */\n      0x04\n        /* \"Complaint.sol\":4256:4297  pendingResolutions.push(Complaints[i].id) */\n      dup1\n      sload\n      0x01\n      dup2\n      add\n      dup3\n      sstore\n      swap3\n      mstore\n      0x8a35acfbc15ff81a39ae7d344fd709f28e8600b4aa8c65c6b64bfe7fe36bd19b\n      swap1\n      swap2\n      add\n      sstore\n        /* \"Complaint.sol\":4064:4313  if (... */\n    tag_107:\n        /* \"Complaint.sol\":4044:4047  i++ */\n      dup1\n      tag_109\n      dup2\n      tag_83\n      jump\t// in\n    tag_109:\n      swap2\n      pop\n      pop\n        /* \"Complaint.sol\":4012:4324  for (uint256 i = 1; i < nextId; i++) {... */\n      jump(tag_102)\n        /* \"Complaint.sol\":4602:4701  function setOfficerAddress(address _officer) public onlyOwner {... */\n    tag_32:\n        /* \"Complaint.sol\":484:489  owner */\n      and(sub(shl(0xa0, 0x01), 0x01), sload(0x01))\n        /* \"Complaint.sol\":470:480  msg.sender */\n      caller\n        /* \"Complaint.sol\":470:489  msg.sender == owner */\n      eq\n        /* \"Complaint.sol\":448:561  require(... */\n      tag_111\n      jumpi\n      mload(0x40)\n      shl(0xe5, 0x461bcd)\n      dup2\n      mstore\n        /* \"#utility.yul\":6364:6366   */\n      0x20\n        /* \"Complaint.sol\":448:561  require(... */\n      0x04\n      dup3\n      add\n        /* \"#utility.yul\":6346:6367   */\n      mstore\n        /* \"#utility.yul\":6403:6405   */\n      0x2c\n        /* \"#utility.yul\":6383:6401   */\n      0x24\n      dup3\n      add\n        /* \"#utility.yul\":6376:6406   */\n      mstore\n        /* \"#utility.yul\":6442:6476   */\n      0x596f7520617265206e6f7420746865206f776e6572206f66207468697320736d\n        /* \"#utility.yul\":6422:6440   */\n      0x44\n      dup3\n      add\n        /* \"#utility.yul\":6415:6477   */\n      mstore\n        /* \"#utility.yul\":6513:6527   */\n      0x61727420636f6e74726163740000000000000000000000000000000000000000\n        /* \"#utility.yul\":6493:6511   */\n      0x64\n      dup3\n      add\n        /* \"#utility.yul\":6486:6528   */\n      mstore\n        /* \"#utility.yul\":6545:6564   */\n      0x84\n      add\n        /* \"Complaint.sol\":448:561  require(... */\n      tag_86\n        /* \"#utility.yul\":6162:6570   */\n      jump\n        /* \"Complaint.sol\":448:561  require(... */\n    tag_111:\n        /* \"Complaint.sol\":4675:4682  officer */\n      0x00\n        /* \"Complaint.sol\":4675:4693  officer = _officer */\n      dup1\n      sload\n      not(0xffffffffffffffffffffffffffffffffffffffff)\n      and\n      sub(shl(0xa0, 0x01), 0x01)\n      swap3\n      swap1\n      swap3\n      and\n      swap2\n      swap1\n      swap2\n      or\n      swap1\n      sstore\n        /* \"Complaint.sol\":4602:4701  function setOfficerAddress(address _officer) public onlyOwner {... */\n      jump\t// out\n        /* \"Complaint.sol\":252:282  uint256[] public resolvedCases */\n    tag_36:\n      0x05\n      dup2\n      dup2\n      sload\n      dup2\n      lt\n      tag_115\n      jumpi\n      0x00\n      dup1\n      revert\n    tag_115:\n      0x00\n      swap2\n      dup3\n      mstore\n      0x20\n      swap1\n      swap2\n      keccak256\n      add\n      sload\n      swap1\n      pop\n      dup2\n      jump\t// out\n        /* \"Complaint.sol\":170:203  uint256[] public pendingApprovals */\n    tag_44:\n      0x03\n      dup2\n      dup2\n      sload\n      dup2\n      lt\n      tag_115\n      jumpi\n      0x00\n      dup1\n      revert\n        /* \"Complaint.sol\":1235:1900  function fileComplaint(string memory _title, string memory _description)... */\n    tag_49:\n        /* \"Complaint.sol\":1384:1390  nextId */\n      0x02\n      dup1\n      sload\n        /* \"Complaint.sol\":1340:1370  complaint storage newComplaint */\n      0x00\n        /* \"Complaint.sol\":1373:1391  Complaints[nextId] */\n      dup2\n      dup2\n      mstore\n        /* \"Complaint.sol\":1373:1383  Complaints */\n      0x06\n        /* \"Complaint.sol\":1373:1391  Complaints[nextId] */\n      0x20\n      swap1\n      dup2\n      mstore\n      0x40\n      swap1\n      swap2\n      keccak256\n        /* \"Complaint.sol\":1402:1426  newComplaint.id = nextId */\n      swap2\n      dup3\n      sstore\n        /* \"Complaint.sol\":1437:1471  newComplaint.complaintRegisteredBy */\n      0x01\n      dup3\n      add\n        /* \"Complaint.sol\":1437:1484  newComplaint.complaintRegisteredBy = msg.sender */\n      dup1\n      sload\n      not(0xffffffffffffffffffffffffffffffffffffffff)\n      and\n        /* \"Complaint.sol\":1474:1484  msg.sender */\n      caller\n        /* \"Complaint.sol\":1437:1484  newComplaint.complaintRegisteredBy = msg.sender */\n      or\n      swap1\n      sstore\n        /* \"Complaint.sol\":1495:1522  newComplaint.title = _title */\n      dup5\n      mload\n        /* \"Complaint.sol\":1373:1391  Complaints[nextId] */\n      swap2\n      swap3\n        /* \"Complaint.sol\":1495:1522  newComplaint.title = _title */\n      tag_120\n      swap3\n        /* \"Complaint.sol\":1495:1513  newComplaint.title */\n      swap1\n      dup5\n      add\n      swap2\n        /* \"Complaint.sol\":1495:1522  newComplaint.title = _title */\n      dup7\n      add\n      swap1\n      tag_99\n      jump\t// in\n    tag_120:\n      pop\n        /* \"Complaint.sol\":1533:1572  newComplaint.description = _description */\n      dup2\n      mload\n      tag_121\n      swap1\n        /* \"Complaint.sol\":1533:1557  newComplaint.description */\n      0x03\n      dup4\n      add\n      swap1\n        /* \"Complaint.sol\":1533:1572  newComplaint.description = _description */\n      0x20\n      dup6\n      add\n      swap1\n      tag_99\n      jump\t// in\n    tag_121:\n      pop\n        /* \"Complaint.sol\":1583:1631  newComplaint.approvalRemark = \"Pending Approval\" */\n      0x40\n      dup1\n      mload\n      dup1\n      dup3\n      add\n      swap1\n      swap2\n      mstore\n      0x10\n      dup1\n      dup3\n      mstore\n      0x50656e64696e6720417070726f76616c00000000000000000000000000000000\n      0x20\n      swap1\n      swap3\n      add\n      swap2\n      dup3\n      mstore\n      tag_122\n      swap2\n        /* \"Complaint.sol\":1583:1610  newComplaint.approvalRemark */\n      0x04\n      dup5\n      add\n      swap2\n        /* \"Complaint.sol\":1583:1631  newComplaint.approvalRemark = \"Pending Approval\" */\n      tag_99\n      jump\t// in\n    tag_122:\n      pop\n        /* \"Complaint.sol\":1642:1694  newComplaint.resolutionRemark = \"Pending Resolution\" */\n      0x40\n      dup1\n      mload\n      dup1\n      dup3\n      add\n      swap1\n      swap2\n      mstore\n      0x12\n      dup1\n      dup3\n      mstore\n      0x50656e64696e67205265736f6c7574696f6e0000000000000000000000000000\n      0x20\n      swap1\n      swap3\n      add\n      swap2\n      dup3\n      mstore\n      tag_123\n      swap2\n        /* \"Complaint.sol\":1642:1671  newComplaint.resolutionRemark */\n      0x05\n      dup5\n      add\n      swap2\n        /* \"Complaint.sol\":1642:1694  newComplaint.resolutionRemark = \"Pending Resolution\" */\n      tag_99\n      jump\t// in\n    tag_123:\n      pop\n        /* \"Complaint.sol\":1705:1728  newComplaint.isApproved */\n      0x06\n      dup2\n      add\n        /* \"Complaint.sol\":1705:1736  newComplaint.isApproved = false */\n      dup1\n      sload\n      not(0xffffff)\n        /* \"Complaint.sol\":1789:1815  newComplaint.exists = true */\n      and\n      0x010000\n      or\n      swap1\n      sstore\n        /* \"Complaint.sol\":1789:1808  newComplaint.exists */\n      0x02\n        /* \"Complaint.sol\":1846:1852  nextId */\n      sload\n        /* \"Complaint.sol\":1831:1873  complaintFiled(nextId, msg.sender, _title) */\n      mload(0x40)\n      0xdeb4e2a7c73777ecde924d94281fa19efd33da9ff6f4e0c7ede16fa01fa3051d\n      swap2\n      tag_124\n      swap2\n        /* \"Complaint.sol\":1854:1864  msg.sender */\n      caller\n      swap1\n        /* \"Complaint.sol\":1866:1872  _title */\n      dup8\n      swap1\n        /* \"Complaint.sol\":1831:1873  complaintFiled(nextId, msg.sender, _title) */\n      tag_125\n      jump\t// in\n    tag_124:\n      mload(0x40)\n      dup1\n      swap2\n      sub\n      swap1\n      log1\n        /* \"Complaint.sol\":1884:1890  nextId */\n      0x02\n        /* \"Complaint.sol\":1884:1892  nextId++ */\n      dup1\n      sload\n      swap1\n        /* \"Complaint.sol\":1884:1890  nextId */\n      0x00\n        /* \"Complaint.sol\":1884:1892  nextId++ */\n      tag_126\n      dup4\n      tag_83\n      jump\t// in\n    tag_126:\n      swap2\n      swap1\n      pop\n      sstore\n      pop\n        /* \"Complaint.sol\":1329:1900  {... */\n      pop\n        /* \"Complaint.sol\":1235:1900  function fileComplaint(string memory _title, string memory _description)... */\n      pop\n      pop\n      jump\t// out\n        /* \"Complaint.sol\":1059:1106  mapping(uint256 => complaint) public Complaints */\n    tag_56:\n      mstore(0x20, 0x06)\n      0x00\n      swap1\n      dup2\n      mstore\n      0x40\n      swap1\n      keccak256\n      dup1\n      sload\n      0x01\n      dup3\n      add\n      sload\n      0x02\n      dup4\n      add\n      dup1\n      sload\n      swap3\n      swap4\n      sub(shl(0xa0, 0x01), 0x01)\n      swap1\n      swap3\n      and\n      swap3\n      tag_127\n      swap1\n      tag_128\n      jump\t// in\n    tag_127:\n      dup1\n      0x1f\n      add\n      0x20\n      dup1\n      swap2\n      div\n      mul\n      0x20\n      add\n      mload(0x40)\n      swap1\n      dup2\n      add\n      0x40\n      mstore\n      dup1\n      swap3\n      swap2\n      swap1\n      dup2\n      dup2\n      mstore\n      0x20\n      add\n      dup3\n      dup1\n      sload\n      tag_129\n      swap1\n      tag_128\n      jump\t// in\n    tag_129:\n      dup1\n      iszero\n      tag_130\n      jumpi\n      dup1\n      0x1f\n      lt\n      tag_131\n      jumpi\n      0x0100\n      dup1\n      dup4\n      sload\n      div\n      mul\n      dup4\n      mstore\n      swap2\n      0x20\n      add\n      swap2\n      jump(tag_130)\n    tag_131:\n      dup3\n      add\n      swap2\n      swap1\n      0x00\n      mstore\n      keccak256(0x00, 0x20)\n      swap1\n    tag_132:\n      dup2\n      sload\n      dup2\n      mstore\n      swap1\n      0x01\n      add\n      swap1\n      0x20\n      add\n      dup1\n      dup4\n      gt\n      tag_132\n      jumpi\n      dup3\n      swap1\n      sub\n      0x1f\n      and\n      dup3\n      add\n      swap2\n    tag_130:\n      pop\n      pop\n      pop\n      pop\n      pop\n      swap1\n      dup1\n      0x03\n      add\n      dup1\n      sload\n      tag_133\n      swap1\n      tag_128\n      jump\t// in\n    tag_133:\n      dup1\n      0x1f\n      add\n      0x20\n      dup1\n      swap2\n      div\n      mul\n      0x20\n      add\n      mload(0x40)\n      swap1\n      dup2\n      add\n      0x40\n      mstore\n      dup1\n      swap3\n      swap2\n      swap1\n      dup2\n      dup2\n      mstore\n      0x20\n      add\n      dup3\n      dup1\n      sload\n      tag_134\n      swap1\n      tag_128\n      jump\t// in\n    tag_134:\n      dup1\n      iszero\n      tag_135\n      jumpi\n      dup1\n      0x1f\n      lt\n      tag_136\n      jumpi\n      0x0100\n      dup1\n      dup4\n      sload\n      div\n      mul\n      dup4\n      mstore\n      swap2\n      0x20\n      add\n      swap2\n      jump(tag_135)\n    tag_136:\n      dup3\n      add\n      swap2\n      swap1\n      0x00\n      mstore\n      keccak256(0x00, 0x20)\n      swap1\n    tag_137:\n      dup2\n      sload\n      dup2\n      mstore\n      swap1\n      0x01\n      add\n      swap1\n      0x20\n      add\n      dup1\n      dup4\n      gt\n      tag_137\n      jumpi\n      dup3\n      swap1\n      sub\n      0x1f\n      and\n      dup3\n      add\n      swap2\n    tag_135:\n      pop\n      pop\n      pop\n      pop\n      pop\n      swap1\n      dup1\n      0x04\n      add\n      dup1\n      sload\n      tag_138\n      swap1\n      tag_128\n      jump\t// in\n    tag_138:\n      dup1\n      0x1f\n      add\n      0x20\n      dup1\n      swap2\n      div\n      mul\n      0x20\n      add\n      mload(0x40)\n      swap1\n      dup2\n      add\n      0x40\n      mstore\n      dup1\n      swap3\n      swap2\n      swap1\n      dup2\n      dup2\n      mstore\n      0x20\n      add\n      dup3\n      dup1\n      sload\n      tag_139\n      swap1\n      tag_128\n      jump\t// in\n    tag_139:\n      dup1\n      iszero\n      tag_140\n      jumpi\n      dup1\n      0x1f\n      lt\n      tag_141\n      jumpi\n      0x0100\n      dup1\n      dup4\n      sload\n      div\n      mul\n      dup4\n      mstore\n      swap2\n      0x20\n      add\n      swap2\n      jump(tag_140)\n    tag_141:\n      dup3\n      add\n      swap2\n      swap1\n      0x00\n      mstore\n      keccak256(0x00, 0x20)\n      swap1\n    tag_142:\n      dup2\n      sload\n      dup2\n      mstore\n      swap1\n      0x01\n      add\n      swap1\n      0x20\n      add\n      dup1\n      dup4\n      gt\n      tag_142\n      jumpi\n      dup3\n      swap1\n      sub\n      0x1f\n      and\n      dup3\n      add\n      swap2\n    tag_140:\n      pop\n      pop\n      pop\n      pop\n      pop\n      swap1\n      dup1\n      0x05\n      add\n      dup1\n      sload\n      tag_143\n      swap1\n      tag_128\n      jump\t// in\n    tag_143:\n      dup1\n      0x1f\n      add\n      0x20\n      dup1\n      swap2\n      div\n      mul\n      0x20\n      add\n      mload(0x40)\n      swap1\n      dup2\n      add\n      0x40\n      mstore\n      dup1\n      swap3\n      swap2\n      swap1\n      dup2\n      dup2\n      mstore\n      0x20\n      add\n      dup3\n      dup1\n      sload\n      tag_144\n      swap1\n      tag_128\n      jump\t// in\n    tag_144:\n      dup1\n      iszero\n      tag_145\n      jumpi\n      dup1\n      0x1f\n      lt\n      tag_146\n      jumpi\n      0x0100\n      dup1\n      dup4\n      sload\n      div\n      mul\n      dup4\n      mstore\n      swap2\n      0x20\n      add\n      swap2\n      jump(tag_145)\n    tag_146:\n      dup3\n      add\n      swap2\n      swap1\n      0x00\n      mstore\n      keccak256(0x00, 0x20)\n      swap1\n    tag_147:\n      dup2\n      sload\n      dup2\n      mstore\n      swap1\n      0x01\n      add\n      swap1\n      0x20\n      add\n      dup1\n      dup4\n      gt\n      tag_147\n      jumpi\n      dup3\n      swap1\n      sub\n      0x1f\n      and\n      dup3\n      add\n      swap2\n    tag_145:\n      pop\n      pop\n      pop\n      0x06\n      swap1\n      swap4\n      add\n      sload\n      swap2\n      swap3\n      pop\n      pop\n      0xff\n      dup1\n      dup3\n      and\n      swap2\n      0x0100\n      dup2\n      div\n      dup3\n      and\n      swap2\n      0x010000\n      swap1\n      swap2\n      div\n      and\n      dup10\n      jump\t// out\n        /* \"Complaint.sol\":2387:2947  function discardComplaint(uint256 _id, string memory _approvalRemark)... */\n    tag_61:\n        /* \"Complaint.sol\":659:666  officer */\n      and(sub(shl(0xa0, 0x01), 0x01), sload(0x00))\n        /* \"Complaint.sol\":645:655  msg.sender */\n      caller\n        /* \"Complaint.sol\":645:666  msg.sender == officer */\n      eq\n        /* \"Complaint.sol\":623:747  require(... */\n      tag_149\n      jumpi\n      mload(0x40)\n      shl(0xe5, 0x461bcd)\n      dup2\n      mstore\n        /* \"#utility.yul\":4865:4867   */\n      0x20\n        /* \"Complaint.sol\":623:747  require(... */\n      0x04\n      dup3\n      add\n        /* \"#utility.yul\":4847:4868   */\n      mstore\n        /* \"#utility.yul\":4904:4906   */\n      0x35\n        /* \"#utility.yul\":4884:4902   */\n      0x24\n      dup3\n      add\n        /* \"#utility.yul\":4877:4907   */\n      mstore\n        /* \"#utility.yul\":4943:4977   */\n      0x596f7520617265206e6f742072656769737465726564206f666669636572206f\n        /* \"#utility.yul\":4923:4941   */\n      0x44\n      dup3\n      add\n        /* \"#utility.yul\":4916:4978   */\n      mstore\n        /* \"#utility.yul\":5014:5037   */\n      0x66207468697320736d61727420636f6e74726163740000000000000000000000\n        /* \"#utility.yul\":4994:5012   */\n      0x64\n      dup3\n      add\n        /* \"#utility.yul\":4987:5038   */\n      mstore\n        /* \"#utility.yul\":5055:5074   */\n      0x84\n      add\n        /* \"Complaint.sol\":623:747  require(... */\n      tag_86\n        /* \"#utility.yul\":4663:5080   */\n      jump\n        /* \"Complaint.sol\":623:747  require(... */\n    tag_149:\n        /* \"Complaint.sol\":2532:2547  Complaints[_id] */\n      0x00\n      dup3\n      dup2\n      mstore\n        /* \"Complaint.sol\":2532:2542  Complaints */\n      0x06\n        /* \"Complaint.sol\":2532:2547  Complaints[_id] */\n      0x20\n      dup2\n      swap1\n      mstore\n      0x40\n      swap1\n      swap2\n      keccak256\n        /* \"Complaint.sol\":2532:2554  Complaints[_id].exists */\n      add\n      sload\n      0x010000\n      swap1\n      div\n      0xff\n      and\n        /* \"Complaint.sol\":2532:2562  Complaints[_id].exists == true */\n      iszero\n      iszero\n        /* \"Complaint.sol\":2558:2562  true */\n      0x01\n        /* \"Complaint.sol\":2532:2562  Complaints[_id].exists == true */\n      eq\n        /* \"Complaint.sol\":2510:2622  require(... */\n      tag_152\n      jumpi\n      mload(0x40)\n      shl(0xe5, 0x461bcd)\n      dup2\n      mstore\n        /* \"#utility.yul\":5287:5289   */\n      0x20\n        /* \"Complaint.sol\":2510:2622  require(... */\n      0x04\n      dup3\n      add\n        /* \"#utility.yul\":5269:5290   */\n      dup2\n      swap1\n      mstore\n        /* \"#utility.yul\":5306:5324   */\n      0x24\n      dup3\n      add\n        /* \"#utility.yul\":5299:5329   */\n      mstore\n        /* \"#utility.yul\":5365:5399   */\n      0x5468697320636f6d706c61696e7420696420646f6573206e6f74206578697374\n        /* \"#utility.yul\":5345:5363   */\n      0x44\n      dup3\n      add\n        /* \"#utility.yul\":5338:5400   */\n      mstore\n        /* \"#utility.yul\":5417:5435   */\n      0x64\n      add\n        /* \"Complaint.sol\":2510:2622  require(... */\n      tag_86\n        /* \"#utility.yul\":5085:5441   */\n      jump\n        /* \"Complaint.sol\":2510:2622  require(... */\n    tag_152:\n        /* \"Complaint.sol\":2655:2670  Complaints[_id] */\n      0x00\n      dup3\n      dup2\n      mstore\n        /* \"Complaint.sol\":2655:2665  Complaints */\n      0x06\n        /* \"Complaint.sol\":2655:2670  Complaints[_id] */\n      0x20\n      dup2\n      swap1\n      mstore\n      0x40\n      swap1\n      swap2\n      keccak256\n        /* \"Complaint.sol\":2655:2681  Complaints[_id].isApproved */\n      add\n      sload\n      0xff\n      and\n        /* \"Complaint.sol\":2655:2690  Complaints[_id].isApproved == false */\n      iszero\n        /* \"Complaint.sol\":2633:2747  require(... */\n      tag_154\n      jumpi\n      mload(0x40)\n      shl(0xe5, 0x461bcd)\n      dup2\n      mstore\n        /* \"#utility.yul\":7578:7580   */\n      0x20\n        /* \"Complaint.sol\":2633:2747  require(... */\n      0x04\n      dup3\n      add\n        /* \"#utility.yul\":7560:7581   */\n      mstore\n        /* \"#utility.yul\":7617:7619   */\n      0x1d\n        /* \"#utility.yul\":7597:7615   */\n      0x24\n      dup3\n      add\n        /* \"#utility.yul\":7590:7620   */\n      mstore\n        /* \"#utility.yul\":7656:7687   */\n      0x436f6d706c61696e7420697320616c726561647920617070726f766564000000\n        /* \"#utility.yul\":7636:7654   */\n      0x44\n      dup3\n      add\n        /* \"#utility.yul\":7629:7688   */\n      mstore\n        /* \"#utility.yul\":7705:7723   */\n      0x64\n      add\n        /* \"Complaint.sol\":2633:2747  require(... */\n      tag_86\n        /* \"#utility.yul\":7376:7729   */\n      jump\n        /* \"Complaint.sol\":2633:2747  require(... */\n    tag_154:\n        /* \"Complaint.sol\":2783:2788  false */\n      0x00\n        /* \"Complaint.sol\":2758:2773  Complaints[_id] */\n      dup3\n      dup2\n      mstore\n        /* \"Complaint.sol\":2758:2768  Complaints */\n      0x06\n        /* \"Complaint.sol\":2758:2773  Complaints[_id] */\n      0x20\n      dup2\n      dup2\n      mstore\n      0x40\n      swap3\n      dup4\n      swap1\n      keccak256\n        /* \"Complaint.sol\":2758:2780  Complaints[_id].exists */\n      swap1\n      swap2\n      add\n        /* \"Complaint.sol\":2758:2788  Complaints[_id].exists = false */\n      dup1\n      sload\n      not(0xff0000)\n      and\n      swap1\n      sstore\n        /* \"Complaint.sol\":2832:2939  string.concat(... */\n      swap1\n      mload\n      tag_157\n      swap2\n        /* \"Complaint.sol\":2913:2928  _approvalRemark */\n      dup4\n      swap2\n        /* \"Complaint.sol\":2832:2939  string.concat(... */\n      add\n      tag_158\n      jump\t// in\n    tag_157:\n      0x40\n      dup1\n      mload\n      not(0x1f)\n      dup2\n      dup5\n      sub\n      add\n      dup2\n      mstore\n      swap2\n      dup2\n      mstore\n        /* \"Complaint.sol\":2799:2814  Complaints[_id] */\n      0x00\n      dup5\n      dup2\n      mstore\n        /* \"Complaint.sol\":2799:2809  Complaints */\n      0x06\n        /* \"Complaint.sol\":2832:2939  string.concat(... */\n      0x20\n        /* \"Complaint.sol\":2799:2814  Complaints[_id] */\n      swap1\n      dup2\n      mstore\n      swap2\n      swap1\n      keccak256\n        /* \"Complaint.sol\":2799:2939  Complaints[_id].approvalRemark = string.concat(... */\n      dup3\n      mload\n      tag_98\n      swap4\n        /* \"Complaint.sol\":2799:2829  Complaints[_id].approvalRemark */\n      0x04\n      swap1\n      swap3\n      add\n      swap3\n        /* \"Complaint.sol\":2799:2939  Complaints[_id].approvalRemark = string.concat(... */\n      swap1\n      swap2\n      add\n      swap1\n      tag_99\n      jump\t// in\n        /* \"Complaint.sol\":3564:3914  function calcPendingApprovalIds() public {... */\n    tag_66:\n        /* \"Complaint.sol\":3616:3639  delete pendingApprovals */\n      tag_161\n        /* \"Complaint.sol\":3623:3639  pendingApprovals */\n      0x03\n      0x00\n        /* \"Complaint.sol\":3616:3639  delete pendingApprovals */\n      tag_76\n      jump\t// in\n    tag_161:\n        /* \"Complaint.sol\":3667:3668  1 */\n      0x01\n        /* \"Complaint.sol\":3650:3907  for (uint256 i = 1; i < nextId; i++) {... */\n    tag_162:\n        /* \"Complaint.sol\":3674:3680  nextId */\n      sload(0x02)\n        /* \"Complaint.sol\":3670:3671  i */\n      dup2\n        /* \"Complaint.sol\":3670:3680  i < nextId */\n      lt\n        /* \"Complaint.sol\":3650:3907  for (uint256 i = 1; i < nextId; i++) {... */\n      iszero\n      tag_78\n      jumpi\n        /* \"Complaint.sol\":3724:3737  Complaints[i] */\n      0x00\n      dup2\n      dup2\n      mstore\n        /* \"Complaint.sol\":3724:3734  Complaints */\n      0x06\n        /* \"Complaint.sol\":3724:3737  Complaints[i] */\n      0x20\n      dup2\n      swap1\n      mstore\n      0x40\n      swap1\n      swap2\n      keccak256\n        /* \"Complaint.sol\":3724:3748  Complaints[i].isApproved */\n      add\n      sload\n      0xff\n      and\n        /* \"Complaint.sol\":3724:3757  Complaints[i].isApproved == false */\n      iszero\n      dup1\n      iszero\n        /* \"Complaint.sol\":3724:3806  Complaints[i].isApproved == false &&... */\n      tag_165\n      jumpi\n      pop\n        /* \"Complaint.sol\":3778:3791  Complaints[i] */\n      0x00\n      dup2\n      dup2\n      mstore\n        /* \"Complaint.sol\":3778:3788  Complaints */\n      0x06\n        /* \"Complaint.sol\":3778:3791  Complaints[i] */\n      0x20\n      dup2\n      swap1\n      mstore\n      0x40\n      swap1\n      swap2\n      keccak256\n        /* \"Complaint.sol\":3778:3798  Complaints[i].exists */\n      add\n      sload\n      0x010000\n      swap1\n      div\n      0xff\n      and\n        /* \"Complaint.sol\":3778:3806  Complaints[i].exists == true */\n      iszero\n      iszero\n        /* \"Complaint.sol\":3802:3806  true */\n      0x01\n        /* \"Complaint.sol\":3778:3806  Complaints[i].exists == true */\n      eq\n        /* \"Complaint.sol\":3724:3806  Complaints[i].isApproved == false &&... */\n    tag_165:\n        /* \"Complaint.sol\":3702:3896  if (... */\n      iszero\n      tag_166\n      jumpi\n        /* \"Complaint.sol\":3863:3876  Complaints[i] */\n      0x00\n      dup2\n      dup2\n      mstore\n        /* \"Complaint.sol\":3863:3873  Complaints */\n      0x06\n        /* \"Complaint.sol\":3863:3876  Complaints[i] */\n      0x20\n      mstore\n      0x40\n      dup2\n      keccak256\n        /* \"Complaint.sol\":3863:3879  Complaints[i].id */\n      sload\n        /* \"Complaint.sol\":3841:3857  pendingApprovals */\n      0x03\n        /* \"Complaint.sol\":3841:3880  pendingApprovals.push(Complaints[i].id) */\n      dup1\n      sload\n      0x01\n      dup2\n      add\n      dup3\n      sstore\n      swap3\n      mstore\n      0xc2575a0e9e593c00f959f8c92f12db2869c3395a3b0502d05e2516446f71f85b\n      swap1\n      swap2\n      add\n      sstore\n        /* \"Complaint.sol\":3702:3896  if (... */\n    tag_166:\n        /* \"Complaint.sol\":3682:3685  i++ */\n      dup1\n      tag_168\n      dup2\n      tag_83\n      jump\t// in\n    tag_168:\n      swap2\n      pop\n      pop\n        /* \"Complaint.sol\":3650:3907  for (uint256 i = 1; i < nextId; i++) {... */\n      jump(tag_162)\n        /* \"Complaint.sol\":1908:2379  function approveComplaint(uint256 _id, string memory _approvalRemark)... */\n    tag_69:\n        /* \"Complaint.sol\":659:666  officer */\n      and(sub(shl(0xa0, 0x01), 0x01), sload(0x00))\n        /* \"Complaint.sol\":645:655  msg.sender */\n      caller\n        /* \"Complaint.sol\":645:666  msg.sender == officer */\n      eq\n        /* \"Complaint.sol\":623:747  require(... */\n      tag_170\n      jumpi\n      mload(0x40)\n      shl(0xe5, 0x461bcd)\n      dup2\n      mstore\n        /* \"#utility.yul\":4865:4867   */\n      0x20\n        /* \"Complaint.sol\":623:747  require(... */\n      0x04\n      dup3\n      add\n        /* \"#utility.yul\":4847:4868   */\n      mstore\n        /* \"#utility.yul\":4904:4906   */\n      0x35\n        /* \"#utility.yul\":4884:4902   */\n      0x24\n      dup3\n      add\n        /* \"#utility.yul\":4877:4907   */\n      mstore\n        /* \"#utility.yul\":4943:4977   */\n      0x596f7520617265206e6f742072656769737465726564206f666669636572206f\n        /* \"#utility.yul\":4923:4941   */\n      0x44\n      dup3\n      add\n        /* \"#utility.yul\":4916:4978   */\n      mstore\n        /* \"#utility.yul\":5014:5037   */\n      0x66207468697320736d61727420636f6e74726163740000000000000000000000\n        /* \"#utility.yul\":4994:5012   */\n      0x64\n      dup3\n      add\n        /* \"#utility.yul\":4987:5038   */\n      mstore\n        /* \"#utility.yul\":5055:5074   */\n      0x84\n      add\n        /* \"Complaint.sol\":623:747  require(... */\n      tag_86\n        /* \"#utility.yul\":4663:5080   */\n      jump\n        /* \"Complaint.sol\":623:747  require(... */\n    tag_170:\n        /* \"Complaint.sol\":2053:2068  Complaints[_id] */\n      0x00\n      dup3\n      dup2\n      mstore\n        /* \"Complaint.sol\":2053:2063  Complaints */\n      0x06\n        /* \"Complaint.sol\":2053:2068  Complaints[_id] */\n      0x20\n      dup2\n      swap1\n      mstore\n      0x40\n      swap1\n      swap2\n      keccak256\n        /* \"Complaint.sol\":2053:2075  Complaints[_id].exists */\n      add\n      sload\n      0x010000\n      swap1\n      div\n      0xff\n      and\n        /* \"Complaint.sol\":2053:2083  Complaints[_id].exists == true */\n      iszero\n      iszero\n        /* \"Complaint.sol\":2079:2083  true */\n      0x01\n        /* \"Complaint.sol\":2053:2083  Complaints[_id].exists == true */\n      eq\n        /* \"Complaint.sol\":2031:2143  require(... */\n      tag_173\n      jumpi\n      mload(0x40)\n      shl(0xe5, 0x461bcd)\n      dup2\n      mstore\n        /* \"#utility.yul\":5287:5289   */\n      0x20\n        /* \"Complaint.sol\":2031:2143  require(... */\n      0x04\n      dup3\n      add\n        /* \"#utility.yul\":5269:5290   */\n      dup2\n      swap1\n      mstore\n        /* \"#utility.yul\":5306:5324   */\n      0x24\n      dup3\n      add\n        /* \"#utility.yul\":5299:5329   */\n      mstore\n        /* \"#utility.yul\":5365:5399   */\n      0x5468697320636f6d706c61696e7420696420646f6573206e6f74206578697374\n        /* \"#utility.yul\":5345:5363   */\n      0x44\n      dup3\n      add\n        /* \"#utility.yul\":5338:5400   */\n      mstore\n        /* \"#utility.yul\":5417:5435   */\n      0x64\n      add\n        /* \"Complaint.sol\":2031:2143  require(... */\n      tag_86\n        /* \"#utility.yul\":5085:5441   */\n      jump\n        /* \"Complaint.sol\":2031:2143  require(... */\n    tag_173:\n        /* \"Complaint.sol\":2176:2191  Complaints[_id] */\n      0x00\n      dup3\n      dup2\n      mstore\n        /* \"Complaint.sol\":2176:2186  Complaints */\n      0x06\n        /* \"Complaint.sol\":2176:2191  Complaints[_id] */\n      0x20\n      dup2\n      swap1\n      mstore\n      0x40\n      swap1\n      swap2\n      keccak256\n        /* \"Complaint.sol\":2176:2202  Complaints[_id].isApproved */\n      add\n      sload\n      0xff\n      and\n        /* \"Complaint.sol\":2176:2211  Complaints[_id].isApproved == false */\n      iszero\n        /* \"Complaint.sol\":2154:2268  require(... */\n      tag_175\n      jumpi\n      mload(0x40)\n      shl(0xe5, 0x461bcd)\n      dup2\n      mstore\n        /* \"#utility.yul\":7578:7580   */\n      0x20\n        /* \"Complaint.sol\":2154:2268  require(... */\n      0x04\n      dup3\n      add\n        /* \"#utility.yul\":7560:7581   */\n      mstore\n        /* \"#utility.yul\":7617:7619   */\n      0x1d\n        /* \"#utility.yul\":7597:7615   */\n      0x24\n      dup3\n      add\n        /* \"#utility.yul\":7590:7620   */\n      mstore\n        /* \"#utility.yul\":7656:7687   */\n      0x436f6d706c61696e7420697320616c726561647920617070726f766564000000\n        /* \"#utility.yul\":7636:7654   */\n      0x44\n      dup3\n      add\n        /* \"#utility.yul\":7629:7688   */\n      mstore\n        /* \"#utility.yul\":7705:7723   */\n      0x64\n      add\n        /* \"Complaint.sol\":2154:2268  require(... */\n      tag_86\n        /* \"#utility.yul\":7376:7729   */\n      jump\n        /* \"Complaint.sol\":2154:2268  require(... */\n    tag_175:\n        /* \"Complaint.sol\":2279:2294  Complaints[_id] */\n      0x00\n      dup3\n      dup2\n      mstore\n        /* \"Complaint.sol\":2279:2289  Complaints */\n      0x06\n        /* \"Complaint.sol\":2279:2294  Complaints[_id] */\n      0x20\n      dup2\n      dup2\n      mstore\n      0x40\n      swap1\n      swap3\n      keccak256\n        /* \"Complaint.sol\":2279:2305  Complaints[_id].isApproved */\n      swap1\n      dup2\n      add\n        /* \"Complaint.sol\":2279:2312  Complaints[_id].isApproved = true */\n      dup1\n      sload\n      not(0xff)\n      and\n        /* \"Complaint.sol\":2308:2312  true */\n      0x01\n        /* \"Complaint.sol\":2279:2312  Complaints[_id].isApproved = true */\n      or\n      swap1\n      sstore\n        /* \"Complaint.sol\":2323:2371  Complaints[_id].approvalRemark = _approvalRemark */\n      dup3\n      mload\n      tag_98\n      swap3\n        /* \"Complaint.sol\":2323:2353  Complaints[_id].approvalRemark */\n      0x04\n      swap1\n      swap3\n      add\n      swap2\n        /* \"Complaint.sol\":2323:2371  Complaints[_id].approvalRemark = _approvalRemark */\n      dup5\n      add\n      swap1\n      tag_99\n      jump\t// in\n        /* \"Complaint.sol\":210:245  uint256[] public pendingResolutions */\n    tag_72:\n      0x04\n      dup2\n      dup2\n      sload\n      dup2\n      lt\n      tag_115\n      jumpi\n      0x00\n      dup1\n      revert\n    tag_76:\n      pop\n      dup1\n      sload\n      0x00\n      dup3\n      sstore\n      swap1\n      0x00\n      mstore\n      keccak256(0x00, 0x20)\n      swap1\n      dup2\n      add\n      swap1\n      tag_78\n      swap2\n      swap1\n      tag_182\n      jump\t// in\n    tag_99:\n      dup3\n      dup1\n      sload\n      tag_183\n      swap1\n      tag_128\n      jump\t// in\n    tag_183:\n      swap1\n      0x00\n      mstore\n      keccak256(0x00, 0x20)\n      swap1\n      0x1f\n      add\n      0x20\n      swap1\n      div\n      dup2\n      add\n      swap3\n      dup3\n      tag_185\n      jumpi\n      0x00\n      dup6\n      sstore\n      jump(tag_188)\n    tag_185:\n      dup3\n      0x1f\n      lt\n      tag_186\n      jumpi\n      dup1\n      mload\n      not(0xff)\n      and\n      dup4\n      dup1\n      add\n      or\n      dup6\n      sstore\n      jump(tag_188)\n    tag_186:\n      dup3\n      dup1\n      add\n      0x01\n      add\n      dup6\n      sstore\n      dup3\n      iszero\n      tag_188\n      jumpi\n      swap2\n      dup3\n      add\n    tag_187:\n      dup3\n      dup2\n      gt\n      iszero\n      tag_188\n      jumpi\n      dup3\n      mload\n      dup3\n      sstore\n      swap2\n      0x20\n      add\n      swap2\n      swap1\n      0x01\n      add\n      swap1\n      jump(tag_187)\n    tag_188:\n      pop\n      tag_189\n      swap3\n      swap2\n      pop\n      tag_182\n      jump\t// in\n    tag_189:\n      pop\n      swap1\n      jump\t// out\n    tag_182:\n    tag_190:\n      dup1\n      dup3\n      gt\n      iszero\n      tag_189\n      jumpi\n      0x00\n      dup2\n      sstore\n      0x01\n      add\n      jump(tag_190)\n        /* \"#utility.yul\":14:141   */\n    tag_192:\n        /* \"#utility.yul\":75:85   */\n      0x4e487b71\n        /* \"#utility.yul\":70:73   */\n      0xe0\n        /* \"#utility.yul\":66:86   */\n      shl\n        /* \"#utility.yul\":63:64   */\n      0x00\n        /* \"#utility.yul\":56:87   */\n      mstore\n        /* \"#utility.yul\":106:110   */\n      0x41\n        /* \"#utility.yul\":103:104   */\n      0x04\n        /* \"#utility.yul\":96:111   */\n      mstore\n        /* \"#utility.yul\":130:134   */\n      0x24\n        /* \"#utility.yul\":127:128   */\n      0x00\n        /* \"#utility.yul\":120:135   */\n      revert\n        /* \"#utility.yul\":146:865   */\n    tag_193:\n        /* \"#utility.yul\":189:194   */\n      0x00\n        /* \"#utility.yul\":242:245   */\n      dup3\n        /* \"#utility.yul\":235:239   */\n      0x1f\n        /* \"#utility.yul\":227:233   */\n      dup4\n        /* \"#utility.yul\":223:240   */\n      add\n        /* \"#utility.yul\":219:246   */\n      slt\n        /* \"#utility.yul\":209:264   */\n      tag_199\n      jumpi\n        /* \"#utility.yul\":260:261   */\n      0x00\n        /* \"#utility.yul\":257:258   */\n      dup1\n        /* \"#utility.yul\":250:262   */\n      revert\n        /* \"#utility.yul\":209:264   */\n    tag_199:\n        /* \"#utility.yul\":296:302   */\n      dup2\n        /* \"#utility.yul\":283:303   */\n      calldataload\n        /* \"#utility.yul\":322:340   */\n      0xffffffffffffffff\n        /* \"#utility.yul\":359:361   */\n      dup1\n        /* \"#utility.yul\":355:357   */\n      dup3\n        /* \"#utility.yul\":352:362   */\n      gt\n        /* \"#utility.yul\":349:385   */\n      iszero\n      tag_201\n      jumpi\n        /* \"#utility.yul\":365:383   */\n      tag_201\n      tag_192\n      jump\t// in\n    tag_201:\n        /* \"#utility.yul\":440:442   */\n      0x40\n        /* \"#utility.yul\":434:443   */\n      mload\n        /* \"#utility.yul\":408:410   */\n      0x1f\n        /* \"#utility.yul\":494:507   */\n      dup4\n      add\n      not(0x1f)\n        /* \"#utility.yul\":490:512   */\n      swap1\n      dup2\n      and\n        /* \"#utility.yul\":514:516   */\n      0x3f\n        /* \"#utility.yul\":486:517   */\n      add\n        /* \"#utility.yul\":482:522   */\n      and\n        /* \"#utility.yul\":470:523   */\n      dup2\n      add\n      swap1\n        /* \"#utility.yul\":538:556   */\n      dup3\n      dup3\n      gt\n        /* \"#utility.yul\":558:580   */\n      dup2\n      dup4\n      lt\n        /* \"#utility.yul\":535:581   */\n      or\n        /* \"#utility.yul\":532:604   */\n      iszero\n      tag_203\n      jumpi\n        /* \"#utility.yul\":584:602   */\n      tag_203\n      tag_192\n      jump\t// in\n    tag_203:\n        /* \"#utility.yul\":624:634   */\n      dup2\n        /* \"#utility.yul\":620:622   */\n      0x40\n        /* \"#utility.yul\":613:635   */\n      mstore\n        /* \"#utility.yul\":659:661   */\n      dup4\n        /* \"#utility.yul\":651:657   */\n      dup2\n        /* \"#utility.yul\":644:662   */\n      mstore\n        /* \"#utility.yul\":705:708   */\n      dup7\n        /* \"#utility.yul\":698:702   */\n      0x20\n        /* \"#utility.yul\":693:695   */\n      dup6\n        /* \"#utility.yul\":685:691   */\n      dup9\n        /* \"#utility.yul\":681:696   */\n      add\n        /* \"#utility.yul\":677:703   */\n      add\n        /* \"#utility.yul\":674:709   */\n      gt\n        /* \"#utility.yul\":671:726   */\n      iszero\n      tag_204\n      jumpi\n        /* \"#utility.yul\":722:723   */\n      0x00\n        /* \"#utility.yul\":719:720   */\n      dup1\n        /* \"#utility.yul\":712:724   */\n      revert\n        /* \"#utility.yul\":671:726   */\n    tag_204:\n        /* \"#utility.yul\":786:788   */\n      dup4\n        /* \"#utility.yul\":779:783   */\n      0x20\n        /* \"#utility.yul\":771:777   */\n      dup8\n        /* \"#utility.yul\":767:784   */\n      add\n        /* \"#utility.yul\":760:764   */\n      0x20\n        /* \"#utility.yul\":752:758   */\n      dup4\n        /* \"#utility.yul\":748:765   */\n      add\n        /* \"#utility.yul\":735:789   */\n      calldatacopy\n        /* \"#utility.yul\":833:834   */\n      0x00\n        /* \"#utility.yul\":826:830   */\n      0x20\n        /* \"#utility.yul\":821:823   */\n      dup6\n        /* \"#utility.yul\":813:819   */\n      dup4\n        /* \"#utility.yul\":809:824   */\n      add\n        /* \"#utility.yul\":805:831   */\n      add\n        /* \"#utility.yul\":798:835   */\n      mstore\n        /* \"#utility.yul\":853:859   */\n      dup1\n        /* \"#utility.yul\":844:859   */\n      swap5\n      pop\n      pop\n      pop\n      pop\n      pop\n        /* \"#utility.yul\":146:865   */\n      swap3\n      swap2\n      pop\n      pop\n      jump\t// out\n        /* \"#utility.yul\":870:1260   */\n    tag_25:\n        /* \"#utility.yul\":948:954   */\n      0x00\n        /* \"#utility.yul\":956:962   */\n      dup1\n        /* \"#utility.yul\":1009:1011   */\n      0x40\n        /* \"#utility.yul\":997:1006   */\n      dup4\n        /* \"#utility.yul\":988:995   */\n      dup6\n        /* \"#utility.yul\":984:1007   */\n      sub\n        /* \"#utility.yul\":980:1012   */\n      slt\n        /* \"#utility.yul\":977:1029   */\n      iszero\n      tag_206\n      jumpi\n        /* \"#utility.yul\":1025:1026   */\n      0x00\n        /* \"#utility.yul\":1022:1023   */\n      dup1\n        /* \"#utility.yul\":1015:1027   */\n      revert\n        /* \"#utility.yul\":977:1029   */\n    tag_206:\n        /* \"#utility.yul\":1061:1070   */\n      dup3\n        /* \"#utility.yul\":1048:1071   */\n      calldataload\n        /* \"#utility.yul\":1038:1071   */\n      swap2\n      pop\n        /* \"#utility.yul\":1122:1124   */\n      0x20\n        /* \"#utility.yul\":1111:1120   */\n      dup4\n        /* \"#utility.yul\":1107:1125   */\n      add\n        /* \"#utility.yul\":1094:1126   */\n      calldataload\n        /* \"#utility.yul\":1149:1167   */\n      0xffffffffffffffff\n        /* \"#utility.yul\":1141:1147   */\n      dup2\n        /* \"#utility.yul\":1138:1168   */\n      gt\n        /* \"#utility.yul\":1135:1185   */\n      iszero\n      tag_207\n      jumpi\n        /* \"#utility.yul\":1181:1182   */\n      0x00\n        /* \"#utility.yul\":1178:1179   */\n      dup1\n        /* \"#utility.yul\":1171:1183   */\n      revert\n        /* \"#utility.yul\":1135:1185   */\n    tag_207:\n        /* \"#utility.yul\":1204:1254   */\n      tag_208\n        /* \"#utility.yul\":1246:1253   */\n      dup6\n        /* \"#utility.yul\":1237:1243   */\n      dup3\n        /* \"#utility.yul\":1226:1235   */\n      dup7\n        /* \"#utility.yul\":1222:1244   */\n      add\n        /* \"#utility.yul\":1204:1254   */\n      tag_193\n      jump\t// in\n    tag_208:\n        /* \"#utility.yul\":1194:1254   */\n      swap2\n      pop\n      pop\n        /* \"#utility.yul\":870:1260   */\n      swap3\n      pop\n      swap3\n      swap1\n      pop\n      jump\t// out\n        /* \"#utility.yul\":1265:1574   */\n    tag_31:\n        /* \"#utility.yul\":1324:1330   */\n      0x00\n        /* \"#utility.yul\":1377:1379   */\n      0x20\n        /* \"#utility.yul\":1365:1374   */\n      dup3\n        /* \"#utility.yul\":1356:1363   */\n      dup5\n        /* \"#utility.yul\":1352:1375   */\n      sub\n        /* \"#utility.yul\":1348:1380   */\n      slt\n        /* \"#utility.yul\":1345:1397   */\n      iszero\n      tag_210\n      jumpi\n        /* \"#utility.yul\":1393:1394   */\n      0x00\n        /* \"#utility.yul\":1390:1391   */\n      dup1\n        /* \"#utility.yul\":1383:1395   */\n      revert\n        /* \"#utility.yul\":1345:1397   */\n    tag_210:\n        /* \"#utility.yul\":1432:1441   */\n      dup2\n        /* \"#utility.yul\":1419:1442   */\n      calldataload\n      sub(shl(0xa0, 0x01), 0x01)\n        /* \"#utility.yul\":1475:1480   */\n      dup2\n        /* \"#utility.yul\":1471:1525   */\n      and\n        /* \"#utility.yul\":1464:1469   */\n      dup2\n        /* \"#utility.yul\":1461:1526   */\n      eq\n        /* \"#utility.yul\":1451:1544   */\n      tag_211\n      jumpi\n        /* \"#utility.yul\":1540:1541   */\n      0x00\n        /* \"#utility.yul\":1537:1538   */\n      dup1\n        /* \"#utility.yul\":1530:1542   */\n      revert\n        /* \"#utility.yul\":1451:1544   */\n    tag_211:\n        /* \"#utility.yul\":1563:1568   */\n      swap4\n        /* \"#utility.yul\":1265:1574   */\n      swap3\n      pop\n      pop\n      pop\n      jump\t// out\n        /* \"#utility.yul\":1579:1759   */\n    tag_35:\n        /* \"#utility.yul\":1638:1644   */\n      0x00\n        /* \"#utility.yul\":1691:1693   */\n      0x20\n        /* \"#utility.yul\":1679:1688   */\n      dup3\n        /* \"#utility.yul\":1670:1677   */\n      dup5\n        /* \"#utility.yul\":1666:1689   */\n      sub\n        /* \"#utility.yul\":1662:1694   */\n      slt\n        /* \"#utility.yul\":1659:1711   */\n      iszero\n      tag_213\n      jumpi\n        /* \"#utility.yul\":1707:1708   */\n      0x00\n        /* \"#utility.yul\":1704:1705   */\n      dup1\n        /* \"#utility.yul\":1697:1709   */\n      revert\n        /* \"#utility.yul\":1659:1711   */\n    tag_213:\n      pop\n        /* \"#utility.yul\":1730:1753   */\n      calldataload\n      swap2\n        /* \"#utility.yul\":1579:1759   */\n      swap1\n      pop\n      jump\t// out\n        /* \"#utility.yul\":1946:2489   */\n    tag_48:\n        /* \"#utility.yul\":2034:2040   */\n      0x00\n        /* \"#utility.yul\":2042:2048   */\n      dup1\n        /* \"#utility.yul\":2095:2097   */\n      0x40\n        /* \"#utility.yul\":2083:2092   */\n      dup4\n        /* \"#utility.yul\":2074:2081   */\n      dup6\n        /* \"#utility.yul\":2070:2093   */\n      sub\n        /* \"#utility.yul\":2066:2098   */\n      slt\n        /* \"#utility.yul\":2063:2115   */\n      iszero\n      tag_216\n      jumpi\n        /* \"#utility.yul\":2111:2112   */\n      0x00\n        /* \"#utility.yul\":2108:2109   */\n      dup1\n        /* \"#utility.yul\":2101:2113   */\n      revert\n        /* \"#utility.yul\":2063:2115   */\n    tag_216:\n        /* \"#utility.yul\":2151:2160   */\n      dup3\n        /* \"#utility.yul\":2138:2161   */\n      calldataload\n        /* \"#utility.yul\":2180:2198   */\n      0xffffffffffffffff\n        /* \"#utility.yul\":2221:2223   */\n      dup1\n        /* \"#utility.yul\":2213:2219   */\n      dup3\n        /* \"#utility.yul\":2210:2224   */\n      gt\n        /* \"#utility.yul\":2207:2241   */\n      iszero\n      tag_217\n      jumpi\n        /* \"#utility.yul\":2237:2238   */\n      0x00\n        /* \"#utility.yul\":2234:2235   */\n      dup1\n        /* \"#utility.yul\":2227:2239   */\n      revert\n        /* \"#utility.yul\":2207:2241   */\n    tag_217:\n        /* \"#utility.yul\":2260:2310   */\n      tag_218\n        /* \"#utility.yul\":2302:2309   */\n      dup7\n        /* \"#utility.yul\":2293:2299   */\n      dup4\n        /* \"#utility.yul\":2282:2291   */\n      dup8\n        /* \"#utility.yul\":2278:2300   */\n      add\n        /* \"#utility.yul\":2260:2310   */\n      tag_193\n      jump\t// in\n    tag_218:\n        /* \"#utility.yul\":2250:2310   */\n      swap4\n      pop\n        /* \"#utility.yul\":2363:2365   */\n      0x20\n        /* \"#utility.yul\":2352:2361   */\n      dup6\n        /* \"#utility.yul\":2348:2366   */\n      add\n        /* \"#utility.yul\":2335:2367   */\n      calldataload\n        /* \"#utility.yul\":2319:2367   */\n      swap2\n      pop\n        /* \"#utility.yul\":2392:2394   */\n      dup1\n        /* \"#utility.yul\":2382:2390   */\n      dup3\n        /* \"#utility.yul\":2379:2395   */\n      gt\n        /* \"#utility.yul\":2376:2412   */\n      iszero\n      tag_219\n      jumpi\n        /* \"#utility.yul\":2408:2409   */\n      0x00\n        /* \"#utility.yul\":2405:2406   */\n      dup1\n        /* \"#utility.yul\":2398:2410   */\n      revert\n        /* \"#utility.yul\":2376:2412   */\n    tag_219:\n      pop\n        /* \"#utility.yul\":2431:2483   */\n      tag_208\n        /* \"#utility.yul\":2475:2482   */\n      dup6\n        /* \"#utility.yul\":2464:2472   */\n      dup3\n        /* \"#utility.yul\":2453:2462   */\n      dup7\n        /* \"#utility.yul\":2449:2473   */\n      add\n        /* \"#utility.yul\":2431:2483   */\n      tag_193\n      jump\t// in\n        /* \"#utility.yul\":2725:2983   */\n    tag_194:\n        /* \"#utility.yul\":2797:2798   */\n      0x00\n        /* \"#utility.yul\":2807:2920   */\n    tag_223:\n        /* \"#utility.yul\":2821:2827   */\n      dup4\n        /* \"#utility.yul\":2818:2819   */\n      dup2\n        /* \"#utility.yul\":2815:2828   */\n      lt\n        /* \"#utility.yul\":2807:2920   */\n      iszero\n      tag_225\n      jumpi\n        /* \"#utility.yul\":2897:2908   */\n      dup2\n      dup2\n      add\n        /* \"#utility.yul\":2891:2909   */\n      mload\n        /* \"#utility.yul\":2878:2889   */\n      dup4\n      dup3\n      add\n        /* \"#utility.yul\":2871:2910   */\n      mstore\n        /* \"#utility.yul\":2843:2845   */\n      0x20\n        /* \"#utility.yul\":2836:2846   */\n      add\n        /* \"#utility.yul\":2807:2920   */\n      jump(tag_223)\n    tag_225:\n        /* \"#utility.yul\":2938:2944   */\n      dup4\n        /* \"#utility.yul\":2935:2936   */\n      dup2\n        /* \"#utility.yul\":2932:2945   */\n      gt\n        /* \"#utility.yul\":2929:2977   */\n      iszero\n      tag_226\n      jumpi\n        /* \"#utility.yul\":2973:2974   */\n      0x00\n        /* \"#utility.yul\":2964:2970   */\n      dup5\n        /* \"#utility.yul\":2959:2962   */\n      dup5\n        /* \"#utility.yul\":2955:2971   */\n      add\n        /* \"#utility.yul\":2948:2975   */\n      mstore\n        /* \"#utility.yul\":2929:2977   */\n    tag_226:\n      pop\n        /* \"#utility.yul\":2725:2983   */\n      pop\n      pop\n      pop\n      jump\t// out\n        /* \"#utility.yul\":2988:3246   */\n    tag_195:\n        /* \"#utility.yul\":3030:3033   */\n      0x00\n        /* \"#utility.yul\":3068:3073   */\n      dup2\n        /* \"#utility.yul\":3062:3074   */\n      mload\n        /* \"#utility.yul\":3095:3101   */\n      dup1\n        /* \"#utility.yul\":3090:3093   */\n      dup5\n        /* \"#utility.yul\":3083:3102   */\n      mstore\n        /* \"#utility.yul\":3111:3174   */\n      tag_228\n        /* \"#utility.yul\":3167:3173   */\n      dup2\n        /* \"#utility.yul\":3160:3164   */\n      0x20\n        /* \"#utility.yul\":3155:3158   */\n      dup7\n        /* \"#utility.yul\":3151:3165   */\n      add\n        /* \"#utility.yul\":3144:3148   */\n      0x20\n        /* \"#utility.yul\":3137:3142   */\n      dup7\n        /* \"#utility.yul\":3133:3149   */\n      add\n        /* \"#utility.yul\":3111:3174   */\n      tag_194\n      jump\t// in\n    tag_228:\n        /* \"#utility.yul\":3228:3230   */\n      0x1f\n        /* \"#utility.yul\":3207:3222   */\n      add\n      not(0x1f)\n        /* \"#utility.yul\":3203:3232   */\n      and\n        /* \"#utility.yul\":3194:3233   */\n      swap3\n      swap1\n      swap3\n      add\n        /* \"#utility.yul\":3235:3239   */\n      0x20\n        /* \"#utility.yul\":3190:3240   */\n      add\n      swap3\n        /* \"#utility.yul\":2988:3246   */\n      swap2\n      pop\n      pop\n      jump\t// out\n        /* \"#utility.yul\":3251:4421   */\n    tag_58:\n        /* \"#utility.yul\":3629:3633   */\n      0x00\n        /* \"#utility.yul\":3658:3661   */\n      0x0120\n        /* \"#utility.yul\":3688:3694   */\n      dup12\n        /* \"#utility.yul\":3677:3686   */\n      dup4\n        /* \"#utility.yul\":3670:3695   */\n      mstore\n      sub(shl(0xa0, 0x01), 0x01)\n        /* \"#utility.yul\":3735:3741   */\n      dup12\n        /* \"#utility.yul\":3731:3786   */\n      and\n        /* \"#utility.yul\":3726:3728   */\n      0x20\n        /* \"#utility.yul\":3715:3724   */\n      dup5\n        /* \"#utility.yul\":3711:3729   */\n      add\n        /* \"#utility.yul\":3704:3787   */\n      mstore\n        /* \"#utility.yul\":3823:3825   */\n      dup1\n        /* \"#utility.yul\":3818:3820   */\n      0x40\n        /* \"#utility.yul\":3807:3816   */\n      dup5\n        /* \"#utility.yul\":3803:3821   */\n      add\n        /* \"#utility.yul\":3796:3826   */\n      mstore\n        /* \"#utility.yul\":3849:3894   */\n      tag_230\n        /* \"#utility.yul\":3890:3892   */\n      dup2\n        /* \"#utility.yul\":3879:3888   */\n      dup5\n        /* \"#utility.yul\":3875:3893   */\n      add\n        /* \"#utility.yul\":3867:3873   */\n      dup12\n        /* \"#utility.yul\":3849:3894   */\n      tag_195\n      jump\t// in\n    tag_230:\n        /* \"#utility.yul\":3835:3894   */\n      swap1\n      pop\n        /* \"#utility.yul\":3942:3951   */\n      dup3\n        /* \"#utility.yul\":3934:3940   */\n      dup2\n        /* \"#utility.yul\":3930:3952   */\n      sub\n        /* \"#utility.yul\":3925:3927   */\n      0x60\n        /* \"#utility.yul\":3914:3923   */\n      dup5\n        /* \"#utility.yul\":3910:3928   */\n      add\n        /* \"#utility.yul\":3903:3953   */\n      mstore\n        /* \"#utility.yul\":3976:4009   */\n      tag_231\n        /* \"#utility.yul\":4002:4008   */\n      dup2\n        /* \"#utility.yul\":3994:4000   */\n      dup11\n        /* \"#utility.yul\":3976:4009   */\n      tag_195\n      jump\t// in\n    tag_231:\n        /* \"#utility.yul\":3962:4009   */\n      swap1\n      pop\n        /* \"#utility.yul\":4058:4067   */\n      dup3\n        /* \"#utility.yul\":4050:4056   */\n      dup2\n        /* \"#utility.yul\":4046:4068   */\n      sub\n        /* \"#utility.yul\":4040:4043   */\n      0x80\n        /* \"#utility.yul\":4029:4038   */\n      dup5\n        /* \"#utility.yul\":4025:4044   */\n      add\n        /* \"#utility.yul\":4018:4069   */\n      mstore\n        /* \"#utility.yul\":4092:4125   */\n      tag_232\n        /* \"#utility.yul\":4118:4124   */\n      dup2\n        /* \"#utility.yul\":4110:4116   */\n      dup10\n        /* \"#utility.yul\":4092:4125   */\n      tag_195\n      jump\t// in\n    tag_232:\n        /* \"#utility.yul\":4078:4125   */\n      swap1\n      pop\n        /* \"#utility.yul\":4174:4183   */\n      dup3\n        /* \"#utility.yul\":4166:4172   */\n      dup2\n        /* \"#utility.yul\":4162:4184   */\n      sub\n        /* \"#utility.yul\":4156:4159   */\n      0xa0\n        /* \"#utility.yul\":4145:4154   */\n      dup5\n        /* \"#utility.yul\":4141:4160   */\n      add\n        /* \"#utility.yul\":4134:4185   */\n      mstore\n        /* \"#utility.yul\":4202:4235   */\n      tag_233\n        /* \"#utility.yul\":4228:4234   */\n      dup2\n        /* \"#utility.yul\":4220:4226   */\n      dup9\n        /* \"#utility.yul\":4202:4235   */\n      tag_195\n      jump\t// in\n    tag_233:\n        /* \"#utility.yul\":4279:4293   */\n      swap6\n      iszero\n        /* \"#utility.yul\":4272:4294   */\n      iszero\n        /* \"#utility.yul\":4266:4269   */\n      0xc0\n        /* \"#utility.yul\":4251:4270   */\n      dup5\n      add\n        /* \"#utility.yul\":4244:4295   */\n      mstore\n      pop\n      pop\n        /* \"#utility.yul\":4339:4353   */\n      swap2\n      iszero\n        /* \"#utility.yul\":4332:4354   */\n      iszero\n        /* \"#utility.yul\":4326:4329   */\n      0xe0\n        /* \"#utility.yul\":4311:4330   */\n      dup4\n      add\n        /* \"#utility.yul\":4304:4355   */\n      mstore\n        /* \"#utility.yul\":4399:4413   */\n      iszero\n        /* \"#utility.yul\":4392:4414   */\n      iszero\n        /* \"#utility.yul\":4386:4389   */\n      0x0100\n        /* \"#utility.yul\":4371:4390   */\n      swap1\n      swap2\n      add\n        /* \"#utility.yul\":4364:4415   */\n      mstore\n        /* \"#utility.yul\":4194:4235   */\n      swap7\n        /* \"#utility.yul\":3251:4421   */\n      swap6\n      pop\n      pop\n      pop\n      pop\n      pop\n      pop\n      jump\t// out\n        /* \"#utility.yul\":4426:4658   */\n    tag_83:\n        /* \"#utility.yul\":4465:4468   */\n      0x00\n        /* \"#utility.yul\":4486:4503   */\n      0x01\n      dup3\n      add\n        /* \"#utility.yul\":4483:4623   */\n      tag_235\n      jumpi\n        /* \"#utility.yul\":4545:4555   */\n      0x4e487b71\n        /* \"#utility.yul\":4540:4543   */\n      0xe0\n        /* \"#utility.yul\":4536:4556   */\n      shl\n        /* \"#utility.yul\":4533:4534   */\n      0x00\n        /* \"#utility.yul\":4526:4557   */\n      mstore\n        /* \"#utility.yul\":4580:4584   */\n      0x11\n        /* \"#utility.yul\":4577:4578   */\n      0x04\n        /* \"#utility.yul\":4570:4585   */\n      mstore\n        /* \"#utility.yul\":4608:4612   */\n      0x24\n        /* \"#utility.yul\":4605:4606   */\n      0x00\n        /* \"#utility.yul\":4598:4613   */\n      revert\n        /* \"#utility.yul\":4483:4623   */\n    tag_235:\n      pop\n        /* \"#utility.yul\":4650:4651   */\n      0x01\n        /* \"#utility.yul\":4639:4652   */\n      add\n      swap1\n        /* \"#utility.yul\":4426:4658   */\n      jump\t// out\n        /* \"#utility.yul\":6575:6986   */\n    tag_125:\n        /* \"#utility.yul\":6780:6786   */\n      dup4\n        /* \"#utility.yul\":6769:6778   */\n      dup2\n        /* \"#utility.yul\":6762:6787   */\n      mstore\n      sub(shl(0xa0, 0x01), 0x01)\n        /* \"#utility.yul\":6827:6833   */\n      dup4\n        /* \"#utility.yul\":6823:6878   */\n      and\n        /* \"#utility.yul\":6818:6820   */\n      0x20\n        /* \"#utility.yul\":6807:6816   */\n      dup3\n        /* \"#utility.yul\":6803:6821   */\n      add\n        /* \"#utility.yul\":6796:6879   */\n      mstore\n        /* \"#utility.yul\":6915:6917   */\n      0x60\n        /* \"#utility.yul\":6910:6912   */\n      0x40\n        /* \"#utility.yul\":6899:6908   */\n      dup3\n        /* \"#utility.yul\":6895:6913   */\n      add\n        /* \"#utility.yul\":6888:6918   */\n      mstore\n        /* \"#utility.yul\":6743:6747   */\n      0x00\n        /* \"#utility.yul\":6935:6980   */\n      tag_242\n        /* \"#utility.yul\":6976:6978   */\n      0x60\n        /* \"#utility.yul\":6965:6974   */\n      dup4\n        /* \"#utility.yul\":6961:6979   */\n      add\n        /* \"#utility.yul\":6953:6959   */\n      dup5\n        /* \"#utility.yul\":6935:6980   */\n      tag_195\n      jump\t// in\n    tag_242:\n        /* \"#utility.yul\":6927:6980   */\n      swap6\n        /* \"#utility.yul\":6575:6986   */\n      swap5\n      pop\n      pop\n      pop\n      pop\n      pop\n      jump\t// out\n        /* \"#utility.yul\":6991:7371   */\n    tag_128:\n        /* \"#utility.yul\":7070:7071   */\n      0x01\n        /* \"#utility.yul\":7066:7078   */\n      dup2\n      dup2\n      shr\n      swap1\n        /* \"#utility.yul\":7113:7125   */\n      dup3\n      and\n      dup1\n        /* \"#utility.yul\":7134:7195   */\n      tag_244\n      jumpi\n        /* \"#utility.yul\":7188:7192   */\n      0x7f\n        /* \"#utility.yul\":7180:7186   */\n      dup3\n        /* \"#utility.yul\":7176:7193   */\n      and\n        /* \"#utility.yul\":7166:7193   */\n      swap2\n      pop\n        /* \"#utility.yul\":7134:7195   */\n    tag_244:\n        /* \"#utility.yul\":7241:7243   */\n      0x20\n        /* \"#utility.yul\":7233:7239   */\n      dup3\n        /* \"#utility.yul\":7230:7244   */\n      lt\n        /* \"#utility.yul\":7210:7228   */\n      dup2\n        /* \"#utility.yul\":7207:7245   */\n      sub\n        /* \"#utility.yul\":7204:7365   */\n      tag_245\n      jumpi\n        /* \"#utility.yul\":7287:7297   */\n      0x4e487b71\n        /* \"#utility.yul\":7282:7285   */\n      0xe0\n        /* \"#utility.yul\":7278:7298   */\n      shl\n        /* \"#utility.yul\":7275:7276   */\n      0x00\n        /* \"#utility.yul\":7268:7299   */\n      mstore\n        /* \"#utility.yul\":7322:7326   */\n      0x22\n        /* \"#utility.yul\":7319:7320   */\n      0x04\n        /* \"#utility.yul\":7312:7327   */\n      mstore\n        /* \"#utility.yul\":7350:7354   */\n      0x24\n        /* \"#utility.yul\":7347:7348   */\n      0x00\n        /* \"#utility.yul\":7340:7355   */\n      revert\n        /* \"#utility.yul\":7204:7365   */\n    tag_245:\n      pop\n        /* \"#utility.yul\":6991:7371   */\n      swap2\n      swap1\n      pop\n      jump\t// out\n        /* \"#utility.yul\":7734:8220   */\n    tag_158:\n        /* \"#utility.yul\":7996:8030   */\n      0x5468697320636f6d706c61696e742069732072656a65637465642e2052656173\n        /* \"#utility.yul\":7991:7994   */\n      dup2\n        /* \"#utility.yul\":7984:8031   */\n      mstore\n      shl(0xe5, 0x037b71d1)\n        /* \"#utility.yul\":8056:8058   */\n      0x20\n        /* \"#utility.yul\":8051:8054   */\n      dup3\n        /* \"#utility.yul\":8047:8059   */\n      add\n        /* \"#utility.yul\":8040:8068   */\n      mstore\n        /* \"#utility.yul\":7966:7969   */\n      0x00\n        /* \"#utility.yul\":8097:8103   */\n      dup3\n        /* \"#utility.yul\":8091:8104   */\n      mload\n        /* \"#utility.yul\":8113:8173   */\n      tag_248\n        /* \"#utility.yul\":8166:8172   */\n      dup2\n        /* \"#utility.yul\":8161:8163   */\n      0x24\n        /* \"#utility.yul\":8156:8159   */\n      dup6\n        /* \"#utility.yul\":8152:8164   */\n      add\n        /* \"#utility.yul\":8147:8149   */\n      0x20\n        /* \"#utility.yul\":8139:8145   */\n      dup8\n        /* \"#utility.yul\":8135:8150   */\n      add\n        /* \"#utility.yul\":8113:8173   */\n      tag_194\n      jump\t// in\n    tag_248:\n        /* \"#utility.yul\":8193:8209   */\n      swap2\n      swap1\n      swap2\n      add\n        /* \"#utility.yul\":8211:8213   */\n      0x24\n        /* \"#utility.yul\":8189:8214   */\n      add\n      swap3\n        /* \"#utility.yul\":7734:8220   */\n      swap2\n      pop\n      pop\n      jump\t// out\n\n    auxdata: 0xa26469706673582212203a0d6555d774a279099fee1ceefe65e2927d89201c1056d974f407128892943864736f6c634300080d0033\n}\n",
    "bytecode": {
      "linkReferences": {},
      "object": "608060405234801561001057600080fd5b5060405161132938038061132983398101604081905261002f91610065565b60018054336001600160a01b0319918216178255600080549091166001600160a01b039390931692909217909155600255610095565b60006020828403121561007757600080fd5b81516001600160a01b038116811461008e57600080fd5b9392505050565b611285806100a46000396000f3fe608060405234801561001057600080fd5b50600436106100f55760003560e01c80636d1727e911610097578063bc685ce011610066578063bc685ce0146101ed578063cc91163514610200578063d203204214610208578063fecc10211461021b57600080fd5b80636d1727e9146101745780638da5cb5b146101875780639f2b37b0146101b2578063b09cc427146101da57600080fd5b80633c5f15e7116100d35780633c5f15e71461011f5780634de1c8c31461013257806361b8ce8c14610158578063686b656e1461016157600080fd5b80632071be7f146100fa57806326019e7f14610104578063346fed1014610117575b600080fd5b61010261022e565b005b610102610112366004610f9b565b6102c1565b6101026104bc565b61010261012d366004610fe2565b610595565b610145610140366004611012565b610644565b6040519081526020015b60405180910390f35b61014560025481565b61014561016f366004611012565b610665565b61010261018236600461102b565b610675565b60015461019a906001600160a01b031681565b6040516001600160a01b03909116815260200161014f565b6101c56101c0366004611012565b6107d1565b60405161014f999897969594939291906110e1565b6101026101e8366004610f9b565b610a4c565b60005461019a906001600160a01b031681565b610102610bfd565b610102610216366004610f9b565b610cae565b610145610229366004611012565b610e31565b61023a60056000610e41565b60015b6002548110156102be5760008181526006602081905260409091200154610100900460ff1615156001036102ac576000818152600660205260408120546005805460018101825592527f036b6384b5eca791c62761152d0c79bb0604c104a5fb6f4eb0703f3154bb3db0909101555b806102b68161116b565b91505061023d565b50565b6000546001600160a01b031633146103465760405162461bcd60e51b815260206004820152603560248201527f596f7520617265206e6f742072656769737465726564206f666669636572206f60448201527f66207468697320736d61727420636f6e7472616374000000000000000000000060648201526084015b60405180910390fd5b6000828152600660208190526040909120015462010000900460ff1615156001146103b35760405162461bcd60e51b815260206004820181905260248201527f5468697320636f6d706c61696e7420696420646f6573206e6f74206578697374604482015260640161033d565b6000828152600660208190526040909120015460ff16151560011461041a5760405162461bcd60e51b815260206004820152601d60248201527f436f6d706c61696e74206973206e6f742079657420617070726f766564000000604482015260640161033d565b60008281526006602081905260409091200154610100900460ff16156104825760405162461bcd60e51b815260206004820152601d60248201527f436f6d706c61696e7420697320616c7265616479207265736f6c766564000000604482015260640161033d565b6000828152600660208181526040909220908101805461ff00191661010017905582516104b792600590920191840190610e5f565b505050565b6104c860046000610e41565b60015b6002548110156102be5760008181526006602081905260409091200154610100900460ff1615801561051457506000818152600660208190526040909120015460ff1615156001145b801561053d57506000818152600660208190526040909120015462010000900460ff1615156001145b15610583576000818152600660205260408120546004805460018101825592527f8a35acfbc15ff81a39ae7d344fd709f28e8600b4aa8c65c6b64bfe7fe36bd19b909101555b8061058d8161116b565b9150506104cb565b6001546001600160a01b031633146106155760405162461bcd60e51b815260206004820152602c60248201527f596f7520617265206e6f7420746865206f776e6572206f66207468697320736d60448201527f61727420636f6e74726163740000000000000000000000000000000000000000606482015260840161033d565b6000805473ffffffffffffffffffffffffffffffffffffffff19166001600160a01b0392909216919091179055565b6005818154811061065457600080fd5b600091825260209091200154905081565b6003818154811061065457600080fd5b60028054600081815260066020908152604090912091825560018201805473ffffffffffffffffffffffffffffffffffffffff191633179055845191926106c29290840191860190610e5f565b5081516106d89060038301906020850190610e5f565b506040805180820190915260108082527f50656e64696e6720417070726f76616c00000000000000000000000000000000602090920191825261071f916004840191610e5f565b506040805180820190915260128082527f50656e64696e67205265736f6c7574696f6e00000000000000000000000000006020909201918252610766916005840191610e5f565b5060068101805462ffffff1916620100001790556002546040517fdeb4e2a7c73777ecde924d94281fa19efd33da9ff6f4e0c7ede16fa01fa3051d916107af9133908790611192565b60405180910390a1600280549060006107c78361116b565b9190505550505050565b60066020526000908152604090208054600182015460028301805492936001600160a01b0390921692610803906111c3565b80601f016020809104026020016040519081016040528092919081815260200182805461082f906111c3565b801561087c5780601f106108515761010080835404028352916020019161087c565b820191906000526020600020905b81548152906001019060200180831161085f57829003601f168201915b505050505090806003018054610891906111c3565b80601f01602080910402602001604051908101604052809291908181526020018280546108bd906111c3565b801561090a5780601f106108df5761010080835404028352916020019161090a565b820191906000526020600020905b8154815290600101906020018083116108ed57829003601f168201915b50505050509080600401805461091f906111c3565b80601f016020809104026020016040519081016040528092919081815260200182805461094b906111c3565b80156109985780601f1061096d57610100808354040283529160200191610998565b820191906000526020600020905b81548152906001019060200180831161097b57829003601f168201915b5050505050908060050180546109ad906111c3565b80601f01602080910402602001604051908101604052809291908181526020018280546109d9906111c3565b8015610a265780601f106109fb57610100808354040283529160200191610a26565b820191906000526020600020905b815481529060010190602001808311610a0957829003601f168201915b5050506006909301549192505060ff808216916101008104821691620100009091041689565b6000546001600160a01b03163314610acc5760405162461bcd60e51b815260206004820152603560248201527f596f7520617265206e6f742072656769737465726564206f666669636572206f60448201527f66207468697320736d61727420636f6e74726163740000000000000000000000606482015260840161033d565b6000828152600660208190526040909120015462010000900460ff161515600114610b395760405162461bcd60e51b815260206004820181905260248201527f5468697320636f6d706c61696e7420696420646f6573206e6f74206578697374604482015260640161033d565b6000828152600660208190526040909120015460ff1615610b9c5760405162461bcd60e51b815260206004820152601d60248201527f436f6d706c61696e7420697320616c726561647920617070726f766564000000604482015260640161033d565b600082815260066020818152604092839020909101805462ff0000191690559051610bc9918391016111fd565b60408051601f1981840301815291815260008481526006602090815291902082516104b79360049092019290910190610e5f565b610c0960036000610e41565b60015b6002548110156102be576000818152600660208190526040909120015460ff16158015610c5657506000818152600660208190526040909120015462010000900460ff1615156001145b15610c9c576000818152600660205260408120546003805460018101825592527fc2575a0e9e593c00f959f8c92f12db2869c3395a3b0502d05e2516446f71f85b909101555b80610ca68161116b565b915050610c0c565b6000546001600160a01b03163314610d2e5760405162461bcd60e51b815260206004820152603560248201527f596f7520617265206e6f742072656769737465726564206f666669636572206f60448201527f66207468697320736d61727420636f6e74726163740000000000000000000000606482015260840161033d565b6000828152600660208190526040909120015462010000900460ff161515600114610d9b5760405162461bcd60e51b815260206004820181905260248201527f5468697320636f6d706c61696e7420696420646f6573206e6f74206578697374604482015260640161033d565b6000828152600660208190526040909120015460ff1615610dfe5760405162461bcd60e51b815260206004820152601d60248201527f436f6d706c61696e7420697320616c726561647920617070726f766564000000604482015260640161033d565b6000828152600660208181526040909220908101805460ff1916600117905582516104b792600490920191840190610e5f565b6004818154811061065457600080fd5b50805460008255906000526020600020908101906102be9190610ee3565b828054610e6b906111c3565b90600052602060002090601f016020900481019282610e8d5760008555610ed3565b82601f10610ea657805160ff1916838001178555610ed3565b82800160010185558215610ed3579182015b82811115610ed3578251825591602001919060010190610eb8565b50610edf929150610ee3565b5090565b5b80821115610edf5760008155600101610ee4565b634e487b7160e01b600052604160045260246000fd5b600082601f830112610f1f57600080fd5b813567ffffffffffffffff80821115610f3a57610f3a610ef8565b604051601f8301601f19908116603f01168101908282118183101715610f6257610f62610ef8565b81604052838152866020858801011115610f7b57600080fd5b836020870160208301376000602085830101528094505050505092915050565b60008060408385031215610fae57600080fd5b82359150602083013567ffffffffffffffff811115610fcc57600080fd5b610fd885828601610f0e565b9150509250929050565b600060208284031215610ff457600080fd5b81356001600160a01b038116811461100b57600080fd5b9392505050565b60006020828403121561102457600080fd5b5035919050565b6000806040838503121561103e57600080fd5b823567ffffffffffffffff8082111561105657600080fd5b61106286838701610f0e565b9350602085013591508082111561107857600080fd5b50610fd885828601610f0e565b60005b838110156110a0578181015183820152602001611088565b838111156110af576000848401525b50505050565b600081518084526110cd816020860160208601611085565b601f01601f19169290920160200192915050565b60006101208b83526001600160a01b038b16602084015280604084015261110a8184018b6110b5565b9050828103606084015261111e818a6110b5565b9050828103608084015261113281896110b5565b905082810360a084015261114681886110b5565b95151560c0840152505091151560e08301521515610100909101529695505050505050565b60006001820161118b57634e487b7160e01b600052601160045260246000fd5b5060010190565b8381526001600160a01b03831660208201526060604082015260006111ba60608301846110b5565b95945050505050565b600181811c908216806111d757607f821691505b6020821081036111f757634e487b7160e01b600052602260045260246000fd5b50919050565b7f5468697320636f6d706c61696e742069732072656a65637465642e2052656173815263037b71d160e51b602082015260008251611242816024850160208701611085565b919091016024019291505056fea26469706673582212203a0d6555d774a279099fee1ceefe65e2927d89201c1056d974f407128892943864736f6c634300080d0033",
      "opcodes": "PUSH1 0x80 PUSH1 0x40 MSTORE CALLVALUE DUP1 ISZERO PUSH2 0x10 JUMPI PUSH1 0x0 DUP1 REVERT JUMPDEST POP PUSH1 0x40 MLOAD PUSH2 0x1329 CODESIZE SUB DUP1 PUSH2 0x1329 DUP4 CODECOPY DUP2 ADD PUSH1 0x40 DUP2 SWAP1 MSTORE PUSH2 0x2F SWAP2 PUSH2 0x65 JUMP JUMPDEST PUSH1 0x1 DUP1 SLOAD CALLER PUSH1 0x1 PUSH1 0x1 PUSH1 0xA0 SHL SUB NOT SWAP2 DUP3 AND OR DUP3 SSTORE PUSH1 0x0 DUP1 SLOAD SWAP1 SWAP2 AND PUSH1 0x1 PUSH1 0x1 PUSH1 0xA0 SHL SUB SWAP4 SWAP1 SWAP4 AND SWAP3 SWAP1 SWAP3 OR SWAP1 SWAP2 SSTORE PUSH1 0x2 SSTORE PUSH2 0x95 JUMP JUMPDEST PUSH1 0x0 PUSH1 0x20 DUP3 DUP5 SUB SLT ISZERO PUSH2 0x77 JUMPI PUSH1 0x0 DUP1 REVERT JUMPDEST DUP2 MLOAD PUSH1 0x1 PUSH1 0x1 PUSH1 0xA0 SHL SUB DUP2 AND DUP2 EQ PUSH2 0x8E JUMPI PUSH1 0x0 DUP1 REVERT JUMPDEST SWAP4 SWAP3 POP POP POP JUMP JUMPDEST PUSH2 0x1285 DUP1 PUSH2 0xA4 PUSH1 0x0 CODECOPY PUSH1 0x0 RETURN INVALID PUSH1 0x80 PUSH1 0x40 MSTORE CALLVALUE DUP1 ISZERO PUSH2 0x10 JUMPI PUSH1 0x0 DUP1 REVERT JUMPDEST POP PUSH1 0x4 CALLDATASIZE LT PUSH2 0xF5 JUMPI PUSH1 0x0 CALLDATALOAD PUSH1 0xE0 SHR DUP1 PUSH4 0x6D1727E9 GT PUSH2 0x97 JUMPI DUP1 PUSH4 0xBC685CE0 GT PUSH2 0x66 JUMPI DUP1 PUSH4 0xBC685CE0 EQ PUSH2 0x1ED JUMPI DUP1 PUSH4 0xCC911635 EQ PUSH2 0x200 JUMPI DUP1 PUSH4 0xD2032042 EQ PUSH2 0x208 JUMPI DUP1 PUSH4 0xFECC1021 EQ PUSH2 0x21B JUMPI PUSH1 0x0 DUP1 REVERT JUMPDEST DUP1 PUSH4 0x6D1727E9 EQ PUSH2 0x174 JUMPI DUP1 PUSH4 0x8DA5CB5B EQ PUSH2 0x187 JUMPI DUP1 PUSH4 0x9F2B37B0 EQ PUSH2 0x1B2 JUMPI DUP1 PUSH4 0xB09CC427 EQ PUSH2 0x1DA JUMPI PUSH1 0x0 DUP1 REVERT JUMPDEST DUP1 PUSH4 0x3C5F15E7 GT PUSH2 0xD3 JUMPI DUP1 PUSH4 0x3C5F15E7 EQ PUSH2 0x11F JUMPI DUP1 PUSH4 0x4DE1C8C3 EQ PUSH2 0x132 JUMPI DUP1 PUSH4 0x61B8CE8C EQ PUSH2 0x158 JUMPI DUP1 PUSH4 0x686B656E EQ PUSH2 0x161 JUMPI PUSH1 0x0 DUP1 REVERT JUMPDEST DUP1 PUSH4 0x2071BE7F EQ PUSH2 0xFA JUMPI DUP1 PUSH4 0x26019E7F EQ PUSH2 0x104 JUMPI DUP1 PUSH4 0x346FED10 EQ PUSH2 0x117 JUMPI JUMPDEST PUSH1 0x0 DUP1 REVERT JUMPDEST PUSH2 0x102 PUSH2 0x22E JUMP JUMPDEST STOP JUMPDEST PUSH2 0x102 PUSH2 0x112 CALLDATASIZE PUSH1 0x4 PUSH2 0xF9B JUMP JUMPDEST PUSH2 0x2C1 JUMP JUMPDEST PUSH2 0x102 PUSH2 0x4BC JUMP JUMPDEST PUSH2 0x102 PUSH2 0x12D CALLDATASIZE PUSH1 0x4 PUSH2 0xFE2 JUMP JUMPDEST PUSH2 0x595 JUMP JUMPDEST PUSH2 0x145 PUSH2 0x140 CALLDATASIZE PUSH1 0x4 PUSH2 0x1012 JUMP JUMPDEST PUSH2 0x644 JUMP JUMPDEST PUSH1 0x40 MLOAD SWAP1 DUP2 MSTORE PUSH1 0x20 ADD JUMPDEST PUSH1 0x40 MLOAD DUP1 SWAP2 SUB SWAP1 RETURN JUMPDEST PUSH2 0x145 PUSH1 0x2 SLOAD DUP2 JUMP JUMPDEST PUSH2 0x145 PUSH2 0x16F CALLDATASIZE PUSH1 0x4 PUSH2 0x1012 JUMP JUMPDEST PUSH2 0x665 JUMP JUMPDEST PUSH2 0x102 PUSH2 0x182 CALLDATASIZE PUSH1 0x4 PUSH2 0x102B JUMP JUMPDEST PUSH2 0x675 JUMP JUMPDEST PUSH1 0x1 SLOAD PUSH2 0x19A SWAP1 PUSH1 0x1 PUSH1 0x1 PUSH1 0xA0 SHL SUB AND DUP2 JUMP JUMPDEST PUSH1 0x40 MLOAD PUSH1 0x1 PUSH1 0x1 PUSH1 0xA0 SHL SUB SWAP1 SWAP2 AND DUP2 MSTORE PUSH1 0x20 ADD PUSH2 0x14F JUMP JUMPDEST PUSH2 0x1C5 PUSH2 0x1C0 CALLDATASIZE PUSH1 0x4 PUSH2 0x1012 JUMP JUMPDEST PUSH2 0x7D1 JUMP JUMPDEST PUSH1 0x40 MLOAD PUSH2 0x14F SWAP10 SWAP9 SWAP8 SWAP7 SWAP6 SWAP5 SWAP4 SWAP3 SWAP2 SWAP1 PUSH2 0x10E1 JUMP JUMPDEST PUSH2 0x102 PUSH2 0x1E8 CALLDATASIZE PUSH1 0x4 PUSH2 0xF9B JUMP JUMPDEST PUSH2 0xA4C JUMP JUMPDEST PUSH1 0x0 SLOAD PUSH2 0x19A SWAP1 PUSH1 0x1 PUSH1 0x1 PUSH1 0xA0 SHL SUB AND DUP2 JUMP JUMPDEST PUSH2 0x102 PUSH2 0xBFD JUMP JUMPDEST PUSH2 0x102 PUSH2 0x216 CALLDATASIZE PUSH1 0x4 PUSH2 0xF9B JUMP JUMPDEST PUSH2 0xCAE JUMP JUMPDEST PUSH2 0x145 PUSH2 0x229 CALLDATASIZE PUSH1 0x4 PUSH2 0x1012 JUMP JUMPDEST PUSH2 0xE31 JUMP JUMPDEST PUSH2 0x23A PUSH1 0x5 PUSH1 0x0 PUSH2 0xE41 JUMP JUMPDEST PUSH1 0x1 JUMPDEST PUSH1 0x2 SLOAD DUP2 LT ISZERO PUSH2 0x2BE JUMPI PUSH1 0x0 DUP2 DUP2 MSTORE PUSH1 0x6 PUSH1 0x20 DUP2 SWAP1 MSTORE PUSH1 0x40 SWAP1 SWAP2 KECCAK256 ADD SLOAD PUSH2 0x100 SWAP1 DIV PUSH1 0xFF AND ISZERO ISZERO PUSH1 0x1 SUB PUSH2 0x2AC JUMPI PUSH1 0x0 DUP2 DUP2 MSTORE PUSH1 0x6 PUSH1 0x20 MSTORE PUSH1 0x40 DUP2 KECCAK256 SLOAD PUSH1 0x5 DUP1 SLOAD PUSH1 0x1 DUP2 ADD DUP3 SSTORE SWAP3 MSTORE PUSH32 0x36B6384B5ECA791C62761152D0C79BB0604C104A5FB6F4EB0703F3154BB3DB0 SWAP1 SWAP2 ADD SSTORE JUMPDEST DUP1 PUSH2 0x2B6 DUP2 PUSH2 0x116B JUMP JUMPDEST SWAP2 POP POP PUSH2 0x23D JUMP JUMPDEST POP JUMP JUMPDEST PUSH1 0x0 SLOAD PUSH1 0x1 PUSH1 0x1 PUSH1 0xA0 SHL SUB AND CALLER EQ PUSH2 0x346 JUMPI PUSH1 0x40 MLOAD PUSH3 0x461BCD PUSH1 0xE5 SHL DUP2 MSTORE PUSH1 0x20 PUSH1 0x4 DUP3 ADD MSTORE PUSH1 0x35 PUSH1 0x24 DUP3 ADD MSTORE PUSH32 0x596F7520617265206E6F742072656769737465726564206F666669636572206F PUSH1 0x44 DUP3 ADD MSTORE PUSH32 0x66207468697320736D61727420636F6E74726163740000000000000000000000 PUSH1 0x64 DUP3 ADD MSTORE PUSH1 0x84 ADD JUMPDEST PUSH1 0x40 MLOAD DUP1 SWAP2 SUB SWAP1 REVERT JUMPDEST PUSH1 0x0 DUP3 DUP2 MSTORE PUSH1 0x6 PUSH1 0x20 DUP2 SWAP1 MSTORE PUSH1 0x40 SWAP1 SWAP2 KECCAK256 ADD SLOAD PUSH3 0x10000 SWAP1 DIV PUSH1 0xFF AND ISZERO ISZERO PUSH1 0x1 EQ PUSH2 0x3B3 JUMPI PUSH1 0x40 MLOAD PUSH3 0x461BCD PUSH1 0xE5 SHL DUP2 MSTORE PUSH1 0x20 PUSH1 0x4 DUP3 ADD DUP2 SWAP1 MSTORE PUSH1 0x24 DUP3 ADD MSTORE PUSH32 0x5468697320636F6D706C61696E7420696420646F6573206E6F74206578697374 PUSH1 0x44 DUP3 ADD MSTORE PUSH1 0x64 ADD PUSH2 0x33D JUMP JUMPDEST PUSH1 0x0 DUP3 DUP2 MSTORE PUSH1 0x6 PUSH1 0x20 DUP2 SWAP1 MSTORE PUSH1 0x40 SWAP1 SWAP2 KECCAK256 ADD SLOAD PUSH1 0xFF AND ISZERO ISZERO PUSH1 0x1 EQ PUSH2 0x41A JUMPI PUSH1 0x40 MLOAD PUSH3 0x461BCD PUSH1 0xE5 SHL DUP2 MSTORE PUSH1 0x20 PUSH1 0x4 DUP3 ADD MSTORE PUSH1 0x1D PUSH1 0x24 DUP3 ADD MSTORE PUSH32 0x436F6D706C61696E74206973206E6F742079657420617070726F766564000000 PUSH1 0x44 DUP3 ADD MSTORE PUSH1 0x64 ADD PUSH2 0x33D JUMP JUMPDEST PUSH1 0x0 DUP3 DUP2 MSTORE PUSH1 0x6 PUSH1 0x20 DUP2 SWAP1 MSTORE PUSH1 0x40 SWAP1 SWAP2 KECCAK256 ADD SLOAD PUSH2 0x100 SWAP1 DIV PUSH1 0xFF AND ISZERO PUSH2 0x482 JUMPI PUSH1 0x40 MLOAD PUSH3 0x461BCD PUSH1 0xE5 SHL DUP2 MSTORE PUSH1 0x20 PUSH1 0x4 DUP3 ADD MSTORE PUSH1 0x1D PUSH1 0x24 DUP3 ADD MSTORE PUSH32 0x436F6D706C61696E7420697320616C7265616479207265736F6C766564000000 PUSH1 0x44 DUP3 ADD MSTORE PUSH1 0x64 ADD PUSH2 0x33D JUMP JUMPDEST PUSH1 0x0 DUP3 DUP2 MSTORE PUSH1 0x6 PUSH1 0x20 DUP2 DUP2 MSTORE PUSH1 0x40 SWAP1 SWAP3 KECCAK256 SWAP1 DUP2 ADD DUP1 SLOAD PUSH2 0xFF00 NOT AND PUSH2 0x100 OR SWAP1 SSTORE DUP3 MLOAD PUSH2 0x4B7 SWAP3 PUSH1 0x5 SWAP1 SWAP3 ADD SWAP2 DUP5 ADD SWAP1 PUSH2 0xE5F JUMP JUMPDEST POP POP POP JUMP JUMPDEST PUSH2 0x4C8 PUSH1 0x4 PUSH1 0x0 PUSH2 0xE41 JUMP JUMPDEST PUSH1 0x1 JUMPDEST PUSH1 0x2 SLOAD DUP2 LT ISZERO PUSH2 0x2BE JUMPI PUSH1 0x0 DUP2 DUP2 MSTORE PUSH1 0x6 PUSH1 0x20 DUP2 SWAP1 MSTORE PUSH1 0x40 SWAP1 SWAP2 KECCAK256 ADD SLOAD PUSH2 0x100 SWAP1 DIV PUSH1 0xFF AND ISZERO DUP1 ISZERO PUSH2 0x514 JUMPI POP PUSH1 0x0 DUP2 DUP2 MSTORE PUSH1 0x6 PUSH1 0x20 DUP2 SWAP1 MSTORE PUSH1 0x40 SWAP1 SWAP2 KECCAK256 ADD SLOAD PUSH1 0xFF AND ISZERO ISZERO PUSH1 0x1 EQ JUMPDEST DUP1 ISZERO PUSH2 0x53D JUMPI POP PUSH1 0x0 DUP2 DUP2 MSTORE PUSH1 0x6 PUSH1 0x20 DUP2 SWAP1 MSTORE PUSH1 0x40 SWAP1 SWAP2 KECCAK256 ADD SLOAD PUSH3 0x10000 SWAP1 DIV PUSH1 0xFF AND ISZERO ISZERO PUSH1 0x1 EQ JUMPDEST ISZERO PUSH2 0x583 JUMPI PUSH1 0x0 DUP2 DUP2 MSTORE PUSH1 0x6 PUSH1 0x20 MSTORE PUSH1 0x40 DUP2 KECCAK256 SLOAD PUSH1 0x4 DUP1 SLOAD PUSH1 0x1 DUP2 ADD DUP3 SSTORE SWAP3 MSTORE PUSH32 0x8A35ACFBC15FF81A39AE7D344FD709F28E8600B4AA8C65C6B64BFE7FE36BD19B SWAP1 SWAP2 ADD SSTORE JUMPDEST DUP1 PUSH2 0x58D DUP2 PUSH2 0x116B JUMP JUMPDEST SWAP2 POP POP PUSH2 0x4CB JUMP JUMPDEST PUSH1 0x1 SLOAD PUSH1 0x1 PUSH1 0x1 PUSH1 0xA0 SHL SUB AND CALLER EQ PUSH2 0x615 JUMPI PUSH1 0x40 MLOAD PUSH3 0x461BCD PUSH1 0xE5 SHL DUP2 MSTORE PUSH1 0x20 PUSH1 0x4 DUP3 ADD MSTORE PUSH1 0x2C PUSH1 0x24 DUP3 ADD MSTORE PUSH32 0x596F7520617265206E6F7420746865206F776E6572206F66207468697320736D PUSH1 0x44 DUP3 ADD MSTORE PUSH32 0x61727420636F6E74726163740000000000000000000000000000000000000000 PUSH1 0x64 DUP3 ADD MSTORE PUSH1 0x84 ADD PUSH2 0x33D JUMP JUMPDEST PUSH1 0x0 DUP1 SLOAD PUSH20 0xFFFFFFFFFFFFFFFFFFFFFFFFFFFFFFFFFFFFFFFF NOT AND PUSH1 0x1 PUSH1 0x1 PUSH1 0xA0 SHL SUB SWAP3 SWAP1 SWAP3 AND SWAP2 SWAP1 SWAP2 OR SWAP1 SSTORE JUMP JUMPDEST PUSH1 0x5 DUP2 DUP2 SLOAD DUP2 LT PUSH2 0x654 JUMPI PUSH1 0x0 DUP1 REVERT JUMPDEST PUSH1 0x0 SWAP2 DUP3 MSTORE PUSH1 0x20 SWAP1 SWAP2 KECCAK256 ADD SLOAD SWAP1 POP DUP2 JUMP JUMPDEST PUSH1 0x3 DUP2 DUP2 SLOAD DUP2 LT PUSH2 0x654 JUMPI PUSH1 0x0 DUP1 REVERT JUMPDEST PUSH1 0x2 DUP1 SLOAD PUSH1 0x0 DUP2 DUP2 MSTORE PUSH1 0x6 PUSH1 0x20 SWAP1 DUP2 MSTORE PUSH1 0x40 SWAP1 SWAP2 KECCAK256 SWAP2 DUP3 SSTORE PUSH1 0x1 DUP3 ADD DUP1 SLOAD PUSH20 0xFFFFFFFFFFFFFFFFFFFFFFFFFFFFFFFFFFFFFFFF NOT AND CALLER OR SWAP1 SSTORE DUP5 MLOAD SWAP2 SWAP3 PUSH2 0x6C2 SWAP3 SWAP1 DUP5 ADD SWAP2 DUP7 ADD SWAP1 PUSH2 0xE5F JUMP JUMPDEST POP DUP2 MLOAD PUSH2 0x6D8 SWAP1 PUSH1 0x3 DUP4 ADD SWAP1 PUSH1 0x20 DUP6 ADD SWAP1 PUSH2 0xE5F JUMP JUMPDEST POP PUSH1 0x40 DUP1 MLOAD DUP1 DUP3 ADD SWAP1 SWAP2 MSTORE PUSH1 0x10 DUP1 DUP3 MSTORE PUSH32 0x50656E64696E6720417070726F76616C00000000000000000000000000000000 PUSH1 0x20 SWAP1 SWAP3 ADD SWAP2 DUP3 MSTORE PUSH2 0x71F SWAP2 PUSH1 0x4 DUP5 ADD SWAP2 PUSH2 0xE5F JUMP JUMPDEST POP PUSH1 0x40 DUP1 MLOAD DUP1 DUP3 ADD SWAP1 SWAP2 MSTORE PUSH1 0x12 DUP1 DUP3 MSTORE PUSH32 0x50656E64696E67205265736F6C7574696F6E0000000000000000000000000000 PUSH1 0x20 SWAP1 SWAP3 ADD SWAP2 DUP3 MSTORE PUSH2 0x766 SWAP2 PUSH1 0x5 DUP5 ADD SWAP2 PUSH2 0xE5F JUMP JUMPDEST POP PUSH1 0x6 DUP2 ADD DUP1 SLOAD PUSH3 0xFFFFFF NOT AND PUSH3 0x10000 OR SWAP1 SSTORE PUSH1 0x2 SLOAD PUSH1 0x40 MLOAD PUSH32 0xDEB4E2A7C73777ECDE924D94281FA19EFD33DA9FF6F4E0C7EDE16FA01FA3051D SWAP2 PUSH2 0x7AF SWAP2 CALLER SWAP1 DUP8 SWAP1 PUSH2 0x1192 JUMP JUMPDEST PUSH1 0x40 MLOAD DUP1 SWAP2 SUB SWAP1 LOG1 PUSH1 0x2 DUP1 SLOAD SWAP1 PUSH1 0x0 PUSH2 0x7C7 DUP4 PUSH2 0x116B JUMP JUMPDEST SWAP2 SWAP1 POP SSTORE POP POP POP POP JUMP JUMPDEST PUSH1 0x6 PUSH1 0x20 MSTORE PUSH1 0x0 SWAP1 DUP2 MSTORE PUSH1 0x40 SWAP1 KECCAK256 DUP1 SLOAD PUSH1 0x1 DUP3 ADD SLOAD PUSH1 0x2 DUP4 ADD DUP1 SLOAD SWAP3 SWAP4 PUSH1 0x1 PUSH1 0x1 PUSH1 0xA0 SHL SUB SWAP1 SWAP3 AND SWAP3 PUSH2 0x803 SWAP1 PUSH2 0x11C3 JUMP JUMPDEST DUP1 PUSH1 0x1F ADD PUSH1 0x20 DUP1 SWAP2 DIV MUL PUSH1 0x20 ADD PUSH1 0x40 MLOAD SWAP1 DUP2 ADD PUSH1 0x40 MSTORE DUP1 SWAP3 SWAP2 SWAP1 DUP2 DUP2 MSTORE PUSH1 0x20 ADD DUP3 DUP1 SLOAD PUSH2 0x82F SWAP1 PUSH2 0x11C3 JUMP JUMPDEST DUP1 ISZERO PUSH2 0x87C JUMPI DUP1 PUSH1 0x1F LT PUSH2 0x851 JUMPI PUSH2 0x100 DUP1 DUP4 SLOAD DIV MUL DUP4 MSTORE SWAP2 PUSH1 0x20 ADD SWAP2 PUSH2 0x87C JUMP JUMPDEST DUP3 ADD SWAP2 SWAP1 PUSH1 0x0 MSTORE PUSH1 0x20 PUSH1 0x0 KECCAK256 SWAP1 JUMPDEST DUP2 SLOAD DUP2 MSTORE SWAP1 PUSH1 0x1 ADD SWAP1 PUSH1 0x20 ADD DUP1 DUP4 GT PUSH2 0x85F JUMPI DUP3 SWAP1 SUB PUSH1 0x1F AND DUP3 ADD SWAP2 JUMPDEST POP POP POP POP POP SWAP1 DUP1 PUSH1 0x3 ADD DUP1 SLOAD PUSH2 0x891 SWAP1 PUSH2 0x11C3 JUMP JUMPDEST DUP1 PUSH1 0x1F ADD PUSH1 0x20 DUP1 SWAP2 DIV MUL PUSH1 0x20 ADD PUSH1 0x40 MLOAD SWAP1 DUP2 ADD PUSH1 0x40 MSTORE DUP1 SWAP3 SWAP2 SWAP1 DUP2 DUP2 MSTORE PUSH1 0x20 ADD DUP3 DUP1 SLOAD PUSH2 0x8BD SWAP1 PUSH2 0x11C3 JUMP JUMPDEST DUP1 ISZERO PUSH2 0x90A JUMPI DUP1 PUSH1 0x1F LT PUSH2 0x8DF JUMPI PUSH2 0x100 DUP1 DUP4 SLOAD DIV MUL DUP4 MSTORE SWAP2 PUSH1 0x20 ADD SWAP2 PUSH2 0x90A JUMP JUMPDEST DUP3 ADD SWAP2 SWAP1 PUSH1 0x0 MSTORE PUSH1 0x20 PUSH1 0x0 KECCAK256 SWAP1 JUMPDEST DUP2 SLOAD DUP2 MSTORE SWAP1 PUSH1 0x1 ADD SWAP1 PUSH1 0x20 ADD DUP1 DUP4 GT PUSH2 0x8ED JUMPI DUP3 SWAP1 SUB PUSH1 0x1F AND DUP3 ADD SWAP2 JUMPDEST POP POP POP POP POP SWAP1 DUP1 PUSH1 0x4 ADD DUP1 SLOAD PUSH2 0x91F SWAP1 PUSH2 0x11C3 JUMP JUMPDEST DUP1 PUSH1 0x1F ADD PUSH1 0x20 DUP1 SWAP2 DIV MUL PUSH1 0x20 ADD PUSH1 0x40 MLOAD SWAP1 DUP2 ADD PUSH1 0x40 MSTORE DUP1 SWAP3 SWAP2 SWAP1 DUP2 DUP2 MSTORE PUSH1 0x20 ADD DUP3 DUP1 SLOAD PUSH2 0x94B SWAP1 PUSH2 0x11C3 JUMP JUMPDEST DUP1 ISZERO PUSH2 0x998 JUMPI DUP1 PUSH1 0x1F LT PUSH2 0x96D JUMPI PUSH2 0x100 DUP1 DUP4 SLOAD DIV MUL DUP4 MSTORE SWAP2 PUSH1 0x20 ADD SWAP2 PUSH2 0x998 JUMP JUMPDEST DUP3 ADD SWAP2 SWAP1 PUSH1 0x0 MSTORE PUSH1 0x20 PUSH1 0x0 KECCAK256 SWAP1 JUMPDEST DUP2 SLOAD DUP2 MSTORE SWAP1 PUSH1 0x1 ADD SWAP1 PUSH1 0x20 ADD DUP1 DUP4 GT PUSH2 0x97B JUMPI DUP3 SWAP1 SUB PUSH1 0x1F AND DUP3 ADD SWAP2 JUMPDEST POP POP POP POP POP SWAP1 DUP1 PUSH1 0x5 ADD DUP1 SLOAD PUSH2 0x9AD SWAP1 PUSH2 0x11C3 JUMP JUMPDEST DUP1 PUSH1 0x1F ADD PUSH1 0x20 DUP1 SWAP2 DIV MUL PUSH1 0x20 ADD PUSH1 0x40 MLOAD SWAP1 DUP2 ADD PUSH1 0x40 MSTORE DUP1 SWAP3 SWAP2 SWAP1 DUP2 DUP2 MSTORE PUSH1 0x20 ADD DUP3 DUP1 SLOAD PUSH2 0x9D9 SWAP1 PUSH2 0x11C3 JUMP JUMPDEST DUP1 ISZERO PUSH2 0xA26 JUMPI DUP1 PUSH1 0x1F LT PUSH2 0x9FB JUMPI PUSH2 0x100 DUP1 DUP4 SLOAD DIV MUL DUP4 MSTORE SWAP2 PUSH1 0x20 ADD SWAP2 PUSH2 0xA26 JUMP JUMPDEST DUP3 ADD SWAP2 SWAP1 PUSH1 0x0 MSTORE PUSH1 0x20 PUSH1 0x0 KECCAK256 SWAP1 JUMPDEST DUP2 SLOAD DUP2 MSTORE SWAP1 PUSH1 0x1 ADD SWAP1 PUSH1 0x20 ADD DUP1 DUP4 GT PUSH2 0xA09 JUMPI DUP3 SWAP1 SUB PUSH1 0x1F AND DUP3 ADD SWAP2 JUMPDEST POP POP POP PUSH1 0x6 SWAP1 SWAP4 ADD SLOAD SWAP2 SWAP3 POP POP PUSH1 0xFF DUP1 DUP3 AND SWAP2 PUSH2 0x100 DUP2 DIV DUP3 AND SWAP2 PUSH3 0x10000 SWAP1 SWAP2 DIV AND DUP10 JUMP JUMPDEST PUSH1 0x0 SLOAD PUSH1 0x1 PUSH1 0x1 PUSH1 0xA0 SHL SUB AND CALLER EQ PUSH2 0xACC JUMPI PUSH1 0x40 MLOAD PUSH3 0x461BCD PUSH1 0xE5 SHL DUP2 MSTORE PUSH1 0x20 PUSH1 0x4 DUP3 ADD MSTORE PUSH1 0x35 PUSH1 0x24 DUP3 ADD MSTORE PUSH32 0x596F7520617265206E6F742072656769737465726564206F666669636572206F PUSH1 0x44 DUP3 ADD MSTORE PUSH32 0x66207468697320736D61727420636F6E74726163740000000000000000000000 PUSH1 0x64 DUP3 ADD MSTORE PUSH1 0x84 ADD PUSH2 0x33D JUMP JUMPDEST PUSH1 0x0 DUP3 DUP2 MSTORE PUSH1 0x6 PUSH1 0x20 DUP2 SWAP1 MSTORE PUSH1 0x40 SWAP1 SWAP2 KECCAK256 ADD SLOAD PUSH3 0x10000 SWAP1 DIV PUSH1 0xFF AND ISZERO ISZERO PUSH1 0x1 EQ PUSH2 0xB39 JUMPI PUSH1 0x40 MLOAD PUSH3 0x461BCD PUSH1 0xE5 SHL DUP2 MSTORE PUSH1 0x20 PUSH1 0x4 DUP3 ADD DUP2 SWAP1 MSTORE PUSH1 0x24 DUP3 ADD MSTORE PUSH32 0x5468697320636F6D706C61696E7420696420646F6573206E6F74206578697374 PUSH1 0x44 DUP3 ADD MSTORE PUSH1 0x64 ADD PUSH2 0x33D JUMP JUMPDEST PUSH1 0x0 DUP3 DUP2 MSTORE PUSH1 0x6 PUSH1 0x20 DUP2 SWAP1 MSTORE PUSH1 0x40 SWAP1 SWAP2 KECCAK256 ADD SLOAD PUSH1 0xFF AND ISZERO PUSH2 0xB9C JUMPI PUSH1 0x40 MLOAD PUSH3 0x461BCD PUSH1 0xE5 SHL DUP2 MSTORE PUSH1 0x20 PUSH1 0x4 DUP3 ADD MSTORE PUSH1 0x1D PUSH1 0x24 DUP3 ADD MSTORE PUSH32 0x436F6D706C61696E7420697320616C726561647920617070726F766564000000 PUSH1 0x44 DUP3 ADD MSTORE PUSH1 0x64 ADD PUSH2 0x33D JUMP JUMPDEST PUSH1 0x0 DUP3 DUP2 MSTORE PUSH1 0x6 PUSH1 0x20 DUP2 DUP2 MSTORE PUSH1 0x40 SWAP3 DUP4 SWAP1 KECCAK256 SWAP1 SWAP2 ADD DUP1 SLOAD PUSH3 0xFF0000 NOT AND SWAP1 SSTORE SWAP1 MLOAD PUSH2 0xBC9 SWAP2 DUP4 SWAP2 ADD PUSH2 0x11FD JUMP JUMPDEST PUSH1 0x40 DUP1 MLOAD PUSH1 0x1F NOT DUP2 DUP5 SUB ADD DUP2 MSTORE SWAP2 DUP2 MSTORE PUSH1 0x0 DUP5 DUP2 MSTORE PUSH1 0x6 PUSH1 0x20 SWAP1 DUP2 MSTORE SWAP2 SWAP1 KECCAK256 DUP3 MLOAD PUSH2 0x4B7 SWAP4 PUSH1 0x4 SWAP1 SWAP3 ADD SWAP3 SWAP1 SWAP2 ADD SWAP1 PUSH2 0xE5F JUMP JUMPDEST PUSH2 0xC09 PUSH1 0x3 PUSH1 0x0 PUSH2 0xE41 JUMP JUMPDEST PUSH1 0x1 JUMPDEST PUSH1 0x2 SLOAD DUP2 LT ISZERO PUSH2 0x2BE JUMPI PUSH1 0x0 DUP2 DUP2 MSTORE PUSH1 0x6 PUSH1 0x20 DUP2 SWAP1 MSTORE PUSH1 0x40 SWAP1 SWAP2 KECCAK256 ADD SLOAD PUSH1 0xFF AND ISZERO DUP1 ISZERO PUSH2 0xC56 JUMPI POP PUSH1 0x0 DUP2 DUP2 MSTORE PUSH1 0x6 PUSH1 0x20 DUP2 SWAP1 MSTORE PUSH1 0x40 SWAP1 SWAP2 KECCAK256 ADD SLOAD PUSH3 0x10000 SWAP1 DIV PUSH1 0xFF AND ISZERO ISZERO PUSH1 0x1 EQ JUMPDEST ISZERO PUSH2 0xC9C JUMPI PUSH1 0x0 DUP2 DUP2 MSTORE PUSH1 0x6 PUSH1 0x20 MSTORE PUSH1 0x40 DUP2 KECCAK256 SLOAD PUSH1 0x3 DUP1 SLOAD PUSH1 0x1 DUP2 ADD DUP3 SSTORE SWAP3 MSTORE PUSH32 0xC2575A0E9E593C00F959F8C92F12DB2869C3395A3B0502D05E2516446F71F85B SWAP1 SWAP2 ADD SSTORE JUMPDEST DUP1 PUSH2 0xCA6 DUP2 PUSH2 0x116B JUMP JUMPDEST SWAP2 POP POP PUSH2 0xC0C JUMP JUMPDEST PUSH1 0x0 SLOAD PUSH1 0x1 PUSH1 0x1 PUSH1 0xA0 SHL SUB AND CALLER EQ PUSH2 0xD2E JUMPI PUSH1 0x40 MLOAD PUSH3 0x461BCD PUSH1 0xE5 SHL DUP2 MSTORE PUSH1 0x20 PUSH1 0x4 DUP3 ADD MSTORE PUSH1 0x35 PUSH1 0x24 DUP3 ADD MSTORE PUSH32 0x596F7520617265206E6F742072656769737465726564206F666669636572206F PUSH1 0x44 DUP3 ADD MSTORE PUSH32 0x66207468697320736D61727420636F6E74726163740000000000000000000000 PUSH1 0x64 DUP3 ADD MSTORE PUSH1 0x84 ADD PUSH2 0x33D JUMP JUMPDEST PUSH1 0x0 DUP3 DUP2 MSTORE PUSH1 0x6 PUSH1 0x20 DUP2 SWAP1 MSTORE PUSH1 0x40 SWAP1 SWAP2 KECCAK256 ADD SLOAD PUSH3 0x10000 SWAP1 DIV PUSH1 0xFF AND ISZERO ISZERO PUSH1 0x1 EQ PUSH2 0xD9B JUMPI PUSH1 0x40 MLOAD PUSH3 0x461BCD PUSH1 0xE5 SHL DUP2 MSTORE PUSH1 0x20 PUSH1 0x4 DUP3 ADD DUP2 SWAP1 MSTORE PUSH1 0x24 DUP3 ADD MSTORE PUSH32 0x5468697320636F6D706C61696E7420696420646F6573206E6F74206578697374 PUSH1 0x44 DUP3 ADD MSTORE PUSH1 0x64 ADD PUSH2 0x33D JUMP JUMPDEST PUSH1 0x0 DUP3 DUP2 MSTORE PUSH1 0x6 PUSH1 0x20 DUP2 SWAP1 MSTORE PUSH1 0x40 SWAP1 SWAP2 KECCAK256 ADD SLOAD PUSH1 0xFF AND ISZERO PUSH2 0xDFE JUMPI PUSH1 0x40 MLOAD PUSH3 0x461BCD PUSH1 0xE5 SHL DUP2 MSTORE PUSH1 0x20 PUSH1 0x4 DUP3 ADD MSTORE PUSH1 0x1D PUSH1 0x24 DUP3 ADD MSTORE PUSH32 0x436F6D706C61696E7420697320616C726561647920617070726F766564000000 PUSH1 0x44 DUP3 ADD MSTORE PUSH1 0x64 ADD PUSH2 0x33D JUMP JUMPDEST PUSH1 0x0 DUP3 DUP2 MSTORE PUSH1 0x6 PUSH1 0x20 DUP2 DUP2 MSTORE PUSH1 0x40 SWAP1 SWAP3 KECCAK256 SWAP1 DUP2 ADD DUP1 SLOAD PUSH1 0xFF NOT AND PUSH1 0x1 OR SWAP1 SSTORE DUP3 MLOAD PUSH2 0x4B7 SWAP3 PUSH1 0x4 SWAP1 SWAP3 ADD SWAP2 DUP5 ADD SWAP1 PUSH2 0xE5F JUMP JUMPDEST PUSH1 0x4 DUP2 DUP2 SLOAD DUP2 LT PUSH2 0x654 JUMPI PUSH1 0x0 DUP1 REVERT JUMPDEST POP DUP1 SLOAD PUSH1 0x0 DUP3 SSTORE SWAP1 PUSH1 0x0 MSTORE PUSH1 0x20 PUSH1 0x0 KECCAK256 SWAP1 DUP2 ADD SWAP1 PUSH2 0x2BE SWAP2 SWAP1 PUSH2 0xEE3 JUMP JUMPDEST DUP3 DUP1 SLOAD PUSH2 0xE6B SWAP1 PUSH2 0x11C3 JUMP JUMPDEST SWAP1 PUSH1 0x0 MSTORE PUSH1 0x20 PUSH1 0x0 KECCAK256 SWAP1 PUSH1 0x1F ADD PUSH1 0x20 SWAP1 DIV DUP2 ADD SWAP3 DUP3 PUSH2 0xE8D JUMPI PUSH1 0x0 DUP6 SSTORE PUSH2 0xED3 JUMP JUMPDEST DUP3 PUSH1 0x1F LT PUSH2 0xEA6 JUMPI DUP1 MLOAD PUSH1 0xFF NOT AND DUP4 DUP1 ADD OR DUP6 SSTORE PUSH2 0xED3 JUMP JUMPDEST DUP3 DUP1 ADD PUSH1 0x1 ADD DUP6 SSTORE DUP3 ISZERO PUSH2 0xED3 JUMPI SWAP2 DUP3 ADD JUMPDEST DUP3 DUP2 GT ISZERO PUSH2 0xED3 JUMPI DUP3 MLOAD DUP3 SSTORE SWAP2 PUSH1 0x20 ADD SWAP2 SWAP1 PUSH1 0x1 ADD SWAP1 PUSH2 0xEB8 JUMP JUMPDEST POP PUSH2 0xEDF SWAP3 SWAP2 POP PUSH2 0xEE3 JUMP JUMPDEST POP SWAP1 JUMP JUMPDEST JUMPDEST DUP1 DUP3 GT ISZERO PUSH2 0xEDF JUMPI PUSH1 0x0 DUP2 SSTORE PUSH1 0x1 ADD PUSH2 0xEE4 JUMP JUMPDEST PUSH4 0x4E487B71 PUSH1 0xE0 SHL PUSH1 0x0 MSTORE PUSH1 0x41 PUSH1 0x4 MSTORE PUSH1 0x24 PUSH1 0x0 REVERT JUMPDEST PUSH1 0x0 DUP3 PUSH1 0x1F DUP4 ADD SLT PUSH2 0xF1F JUMPI PUSH1 0x0 DUP1 REVERT JUMPDEST DUP2 CALLDATALOAD PUSH8 0xFFFFFFFFFFFFFFFF DUP1 DUP3 GT ISZERO PUSH2 0xF3A JUMPI PUSH2 0xF3A PUSH2 0xEF8 JUMP JUMPDEST PUSH1 0x40 MLOAD PUSH1 0x1F DUP4 ADD PUSH1 0x1F NOT SWAP1 DUP2 AND PUSH1 0x3F ADD AND DUP2 ADD SWAP1 DUP3 DUP3 GT DUP2 DUP4 LT OR ISZERO PUSH2 0xF62 JUMPI PUSH2 0xF62 PUSH2 0xEF8 JUMP JUMPDEST DUP2 PUSH1 0x40 MSTORE DUP4 DUP2 MSTORE DUP7 PUSH1 0x20 DUP6 DUP9 ADD ADD GT ISZERO PUSH2 0xF7B JUMPI PUSH1 0x0 DUP1 REVERT JUMPDEST DUP4 PUSH1 0x20 DUP8 ADD PUSH1 0x20 DUP4 ADD CALLDATACOPY PUSH1 0x0 PUSH1 0x20 DUP6 DUP4 ADD ADD MSTORE DUP1 SWAP5 POP POP POP POP POP SWAP3 SWAP2 POP POP JUMP JUMPDEST PUSH1 0x0 DUP1 PUSH1 0x40 DUP4 DUP6 SUB SLT ISZERO PUSH2 0xFAE JUMPI PUSH1 0x0 DUP1 REVERT JUMPDEST DUP3 CALLDATALOAD SWAP2 POP PUSH1 0x20 DUP4 ADD CALLDATALOAD PUSH8 0xFFFFFFFFFFFFFFFF DUP2 GT ISZERO PUSH2 0xFCC JUMPI PUSH1 0x0 DUP1 REVERT JUMPDEST PUSH2 0xFD8 DUP6 DUP3 DUP7 ADD PUSH2 0xF0E JUMP JUMPDEST SWAP2 POP POP SWAP3 POP SWAP3 SWAP1 POP JUMP JUMPDEST PUSH1 0x0 PUSH1 0x20 DUP3 DUP5 SUB SLT ISZERO PUSH2 0xFF4 JUMPI PUSH1 0x0 DUP1 REVERT JUMPDEST DUP2 CALLDATALOAD PUSH1 0x1 PUSH1 0x1 PUSH1 0xA0 SHL SUB DUP2 AND DUP2 EQ PUSH2 0x100B JUMPI PUSH1 0x0 DUP1 REVERT JUMPDEST SWAP4 SWAP3 POP POP POP JUMP JUMPDEST PUSH1 0x0 PUSH1 0x20 DUP3 DUP5 SUB SLT ISZERO PUSH2 0x1024 JUMPI PUSH1 0x0 DUP1 REVERT JUMPDEST POP CALLDATALOAD SWAP2 SWAP1 POP JUMP JUMPDEST PUSH1 0x0 DUP1 PUSH1 0x40 DUP4 DUP6 SUB SLT ISZERO PUSH2 0x103E JUMPI PUSH1 0x0 DUP1 REVERT JUMPDEST DUP3 CALLDATALOAD PUSH8 0xFFFFFFFFFFFFFFFF DUP1 DUP3 GT ISZERO PUSH2 0x1056 JUMPI PUSH1 0x0 DUP1 REVERT JUMPDEST PUSH2 0x1062 DUP7 DUP4 DUP8 ADD PUSH2 0xF0E JUMP JUMPDEST SWAP4 POP PUSH1 0x20 DUP6 ADD CALLDATALOAD SWAP2 POP DUP1 DUP3 GT ISZERO PUSH2 0x1078 JUMPI PUSH1 0x0 DUP1 REVERT JUMPDEST POP PUSH2 0xFD8 DUP6 DUP3 DUP7 ADD PUSH2 0xF0E JUMP JUMPDEST PUSH1 0x0 JUMPDEST DUP4 DUP2 LT ISZERO PUSH2 0x10A0 JUMPI DUP2 DUP2 ADD MLOAD DUP4 DUP3 ADD MSTORE PUSH1 0x20 ADD PUSH2 0x1088 JUMP JUMPDEST DUP4 DUP2 GT ISZERO PUSH2 0x10AF JUMPI PUSH1 0x0 DUP5 DUP5 ADD MSTORE JUMPDEST POP POP POP POP JUMP JUMPDEST PUSH1 0x0 DUP2 MLOAD DUP1 DUP5 MSTORE PUSH2 0x10CD DUP2 PUSH1 0x20 DUP7 ADD PUSH1 0x20 DUP7 ADD PUSH2 0x1085 JUMP JUMPDEST PUSH1 0x1F ADD PUSH1 0x1F NOT AND SWAP3 SWAP1 SWAP3 ADD PUSH1 0x20 ADD SWAP3 SWAP2 POP POP JUMP JUMPDEST PUSH1 0x0 PUSH2 0x120 DUP12 DUP4 MSTORE PUSH1 0x1 PUSH1 0x1 PUSH1 0xA0 SHL SUB DUP12 AND PUSH1 0x20 DUP5 ADD MSTORE DUP1 PUSH1 0x40 DUP5 ADD MSTORE PUSH2 0x110A DUP2 DUP5 ADD DUP12 PUSH2 0x10B5 JUMP JUMPDEST SWAP1 POP DUP3 DUP2 SUB PUSH1 0x60 DUP5 ADD MSTORE PUSH2 0x111E DUP2 DUP11 PUSH2 0x10B5 JUMP JUMPDEST SWAP1 POP DUP3 DUP2 SUB PUSH1 0x80 DUP5 ADD MSTORE PUSH2 0x1132 DUP2 DUP10 PUSH2 0x10B5 JUMP JUMPDEST SWAP1 POP DUP3 DUP2 SUB PUSH1 0xA0 DUP5 ADD MSTORE PUSH2 0x1146 DUP2 DUP9 PUSH2 0x10B5 JUMP JUMPDEST SWAP6 ISZERO ISZERO PUSH1 0xC0 DUP5 ADD MSTORE POP POP SWAP2 ISZERO ISZERO PUSH1 0xE0 DUP4 ADD MSTORE ISZERO ISZERO PUSH2 0x100 SWAP1 SWAP2 ADD MSTORE SWAP7 SWAP6 POP POP POP POP POP POP JUMP JUMPDEST PUSH1 0x0 PUSH1 0x1 DUP3 ADD PUSH2 0x118B JUMPI PUSH4 0x4E487B71 PUSH1 0xE0 SHL PUSH1 0x0 MSTORE PUSH1 0x11 PUSH1 0x4 MSTORE PUSH1 0x24 PUSH1 0x0 REVERT JUMPDEST POP PUSH1 0x1 ADD SWAP1 JUMP JUMPDEST DUP4 DUP2 MSTORE PUSH1 0x1 PUSH1 0x1 PUSH1 0xA0 SHL SUB DUP4 AND PUSH1 0x20 DUP3 ADD MSTORE PUSH1 0x60 PUSH1 0x40 DUP3 ADD MSTORE PUSH1 0x0 PUSH2 0x11BA PUSH1 0x60 DUP4 ADD DUP5 PUSH2 0x10B5 JUMP JUMPDEST SWAP6 SWAP5 POP POP POP POP POP JUMP JUMPDEST PUSH1 0x1 DUP2 DUP2 SHR SWAP1 DUP3 AND DUP1 PUSH2 0x11D7 JUMPI PUSH1 0x7F DUP3 AND SWAP2 POP JUMPDEST PUSH1 0x20 DUP3 LT DUP2 SUB PUSH2 0x11F7 JUMPI PUSH4 0x4E487B71 PUSH1 0xE0 SHL PUSH1 0x0 MSTORE PUSH1 0x22 PUSH1 0x4 MSTORE PUSH1 0x24 PUSH1 0x0 REVERT JUMPDEST POP SWAP2 SWAP1 POP JUMP JUMPDEST PUSH32 0x5468697320636F6D706C61696E742069732072656A65637465642E2052656173 DUP2 MSTORE PUSH4 0x37B71D1 PUSH1 0xE5 SHL PUSH1 0x20 DUP3 ADD MSTORE PUSH1 0x0 DUP3 MLOAD PUSH2 0x1242 DUP2 PUSH1 0x24 DUP6 ADD PUSH1 0x20 DUP8 ADD PUSH2 0x1085 JUMP JUMPDEST SWAP2 SWAP1 SWAP2 ADD PUSH1 0x24 ADD SWAP3 SWAP2 POP POP JUMP INVALID LOG2 PUSH5 0x6970667358 0x22 SLT KECCAK256 GASPRICE 0xD PUSH6 0x55D774A27909 SWAP16 0xEE SHR 0xEE INVALID PUSH6 0xE2927D89201C LT JUMP 0xD9 PUSH21 0xF407128892943864736F6C634300080D0033000000 "
    },
    "gasEstimates": {
      "creation": {
        "codeDepositCost": "948200",
        "executionCost": "infinite",
        "totalCost": "infinite"
      },
      "external": {
        "Complaints(uint256)": "infinite",
        "approveComplaint(uint256,string)": "infinite",
        "calcPendingApprovalIds()": "infinite",
        "calcPendingResolutionIds()": "infinite",
        "calcResolvedIds()": "infinite",
        "discardComplaint(uint256,string)": "infinite",
        "fileComplaint(string,string)": "infinite",
        "nextId()": "2351",
        "officer()": "2359",
        "owner()": "2382",
        "pendingApprovals(uint256)": "4653",
        "pendingResolutions(uint256)": "4652",
        "resolveComplaint(uint256,string)": "infinite",
        "resolvedCases(uint256)": "4609",
        "setOfficerAddress(address)": "26687"
      }
    },
    "methodIdentifiers": {
      "Complaints(uint256)": "9f2b37b0",
      "approveComplaint(uint256,string)": "d2032042",
      "calcPendingApprovalIds()": "cc911635",
      "calcPendingResolutionIds()": "346fed10",
      "calcResolvedIds()": "2071be7f",
      "discardComplaint(uint256,string)": "b09cc427",
      "fileComplaint(string,string)": "6d1727e9",
      "nextId()": "61b8ce8c",
      "officer()": "bc685ce0",
      "owner()": "8da5cb5b",
      "pendingApprovals(uint256)": "686b656e",
      "pendingResolutions(uint256)": "fecc1021",
      "resolveComplaint(uint256,string)": "26019e7f",
      "resolvedCases(uint256)": "4de1c8c3",
      "setOfficerAddress(address)": "3c5f15e7"
    }
  },
  "storageLayout": {
    "storage": [
      {
        "astId": 3,
        "contract": "Complaint.sol:Complaint",
        "label": "officer",
        "offset": 0,
        "slot": "0",
        "type": "t_address"
      },
      {
        "astId": 5,
        "contract": "Complaint.sol:Complaint",
        "label": "owner",
        "offset": 0,
        "slot": "1",
        "type": "t_address"
      },
      {
        "astId": 7,
        "contract": "Complaint.sol:Complaint",
        "label": "nextId",
        "offset": 0,
        "slot": "2",
        "type": "t_uint256"
      },
      {
        "astId": 10,
        "contract": "Complaint.sol:Complaint",
        "label": "pendingApprovals",
        "offset": 0,
        "slot": "3",
        "type": "t_array(t_uint256)dyn_storage"
      },
      {
        "astId": 13,
        "contract": "Complaint.sol:Complaint",
        "label": "pendingResolutions",
        "offset": 0,
        "slot": "4",
        "type": "t_array(t_uint256)dyn_storage"
      },
      {
        "astId": 16,
        "contract": "Complaint.sol:Complaint",
        "label": "resolvedCases",
        "offset": 0,
        "slot": "5",
        "type": "t_array(t_uint256)dyn_storage"
      },
      {
        "astId": 83,
        "contract": "Complaint.sol:Complaint",
        "label": "Complaints",
        "offset": 0,
        "slot": "6",
        "type": "t_mapping(t_uint256,t_struct(complaint)78_storage)"
      }
    ],
    "types": {
      "t_address": {
        "encoding": "inplace",
        "label": "address",
        "numberOfBytes": "20"
      },
      "t_array(t_uint256)dyn_storage": {
        "base": "t_uint256",
        "encoding": "dynamic_array",
        "label": "uint256[]",
        "numberOfBytes": "32"
      },
      "t_bool": {
        "encoding": "inplace",
        "label": "bool",
        "numberOfBytes": "1"
      },
      "t_mapping(t_uint256,t_struct(complaint)78_storage)": {
        "encoding": "mapping",
        "key": "t_uint256",
        "label": "mapping(uint256 => struct Complaint.complaint)",
        "numberOfBytes": "32",
        "value": "t_struct(complaint)78_storage"
      },
      "t_string_storage": {
        "encoding": "bytes",
        "label": "string",
        "numberOfBytes": "32"
      },
      "t_struct(complaint)78_storage": {
        "encoding": "inplace",
        "label": "struct Complaint.complaint",
        "members": [
          {
            "astId": 61,
            "contract": "Complaint.sol:Complaint",
            "label": "id",
            "offset": 0,
            "slot": "0",
            "type": "t_uint256"
          },
          {
            "astId": 63,
            "contract": "Complaint.sol:Complaint",
            "label": "complaintRegisteredBy",
            "offset": 0,
            "slot": "1",
            "type": "t_address"
          },
          {
            "astId": 65,
            "contract": "Complaint.sol:Complaint",
            "label": "title",
            "offset": 0,
            "slot": "2",
            "type": "t_string_storage"
          },
          {
            "astId": 67,
            "contract": "Complaint.sol:Complaint",
            "label": "description",
            "offset": 0,
            "slot": "3",
            "type": "t_string_storage"
          },
          {
            "astId": 69,
            "contract": "Complaint.sol:Complaint",
            "label": "approvalRemark",
            "offset": 0,
            "slot": "4",
            "type": "t_string_storage"
          },
          {
            "astId": 71,
            "contract": "Complaint.sol:Complaint",
            "label": "resolutionRemark",
            "offset": 0,
            "slot": "5",
            "type": "t_string_storage"
          },
          {
            "astId": 73,
            "contract": "Complaint.sol:Complaint",
            "label": "isApproved",
            "offset": 0,
            "slot": "6",
            "type": "t_bool"
          },
          {
            "astId": 75,
            "contract": "Complaint.sol:Complaint",
            "label": "isResolved",
            "offset": 1,
            "slot": "6",
            "type": "t_bool"
          },
          {
            "astId": 77,
            "contract": "Complaint.sol:Complaint",
            "label": "exists",
            "offset": 2,
            "slot": "6",
            "type": "t_bool"
          }
        ],
        "numberOfBytes": "224"
      },
      "t_uint256": {
        "encoding": "inplace",
        "label": "uint256",
        "numberOfBytes": "32"
      }
    }
  },
  "userdoc": {
    "kind": "user",
    "methods": {},
    "version": 1
  }
}